{
  "transactions": [
    {
      "hash": "0x621e44df614d08a660b0608fcad1bc47dd857aff02a0a6b6e6b71c5351d12f68",
      "transactionType": "CREATE",
      "contractName": "DKIMRegistry",
      "contractAddress": "0xa40c38e3b7c8fc30be98f0de17371497cca70e35",
      "function": null,
      "arguments": [
        "0x6636A1CCBdf54485067304C1a590DE016DeaD9F0",
        "0x6636A1CCBdf54485067304C1a590DE016DeaD9F0"
      ],
      "transaction": {
        "from": "0x6636a1ccbdf54485067304c1a590de016dead9f0",
        "gas": "0x95dba",
        "value": "0x0",
        "input": "0x608060405234801561000f575f5ffd5b506040516107f73803806107f783398101604081905261002e9161011d565b816001600160a01b03811661005c57604051631e4fbdf760e01b81525f600482015260240160405180910390fd5b610065816100b3565b50600180546001600160a01b0319166001600160a01b0383169081179091556040517fe6c09ffe4572dc9ceaa5ddde4ae41befa655d6fdfe8052077af0970f700e942e905f90a2505061014e565b5f80546001600160a01b038381166001600160a01b0319831681178455604051919092169283917f8be0079c531659141344cd1fd0a4f28419497f9722a3daafe3b4186f6b6457e09190a35050565b80516001600160a01b0381168114610118575f5ffd5b919050565b5f5f6040838503121561012e575f5ffd5b61013783610102565b915061014560208401610102565b90509250929050565b61069c8061015b5f395ff3fe608060405234801561000f575f5ffd5b5060043610610090575f3560e01c806388a5cdd01161006357806388a5cdd0146101045780638a0dac4a146101895780638da5cb5b1461019c578063f259fda9146101ac578063f2fde38b146101bf575f5ffd5b80631a9cb15114610094578063452a9320146100a957806347e1a1d9146100d9578063715018a6146100fc575b5f5ffd5b6100a76100a236600461058f565b6101d2565b005b6001546100bc906001600160a01b031681565b6040516001600160a01b0390911681526020015b60405180910390f35b6100ec6100e73660046105cb565b6102a4565b60405190151581526020016100d0565b6100a7610362565b61015761011236600461058f565b600260209081525f928352604080842090915290825290205460ff81169067ffffffffffffffff6101008204811691600160481b8104821691600160881b9091041684565b60408051941515855267ffffffffffffffff9384166020860152918316918401919091521660608201526080016100d0565b6100a76101973660046105fd565b610375565b5f546001600160a01b03166100bc565b6100a76101ba366004610623565b6103c6565b6100a76101cd3660046105fd565b6104d2565b5f546001600160a01b031633148015906101f757506001546001600160a01b03163314155b1561021557604051633a3f65d360e21b815260040160405180910390fd5b5f8281526002602090815260408083208484529091529020805460ff1661024f57604051630ba9da7360e21b815260040160405180910390fd5b805467ffffffffffffffff60881b1916600160881b4267ffffffffffffffff1602178155604051829084907fafdcca3b7d8fb561cbe2f009c99c4c80122fbf0504043c2ebe8809b6e93c2006905f90a3505050565b5f8381526002602090815260408083208584529091528120805460ff1615806102de57508054600160881b900467ffffffffffffffff1615155b156102ec575f91505061035b565b805467ffffffffffffffff61010090910481169084161015610311575f91505061035b565b8054600160481b900467ffffffffffffffff16158015906103475750805467ffffffffffffffff600160481b9091048116908416115b15610355575f91505061035b565b60019150505b9392505050565b61036a610514565b6103735f610540565b565b61037d610514565b600180546001600160a01b0319166001600160a01b0383169081179091556040517fe6c09ffe4572dc9ceaa5ddde4ae41befa655d6fdfe8052077af0970f700e942e905f90a250565b6103ce610514565b604080516080810182526001815267ffffffffffffffff84811660208084018281528684168587018181525f606088018181528d8252600286528982208d8352865290899020975188549451925191518816600160881b0267ffffffffffffffff60881b19928916600160481b029290921678ffffffffffffffffffffffffffffffff00000000000000000019939098166101000268ffffffffffffffff00199115159190911668ffffffffffffffffff199095169490941793909317169490941717909355835190815291820152849186917f52bafeba4de2402504d61f002c2fad43812af540e5a29c0fc810adeff8526e6e910160405180910390a350505050565b6104da610514565b6001600160a01b03811661050857604051631e4fbdf760e01b81525f60048201526024015b60405180910390fd5b61051181610540565b50565b5f546001600160a01b031633146103735760405163118cdaa760e01b81523360048201526024016104ff565b5f80546001600160a01b038381166001600160a01b0319831681178455604051919092169283917f8be0079c531659141344cd1fd0a4f28419497f9722a3daafe3b4186f6b6457e09190a35050565b5f5f604083850312156105a0575f5ffd5b50508035926020909101359150565b803567ffffffffffffffff811681146105c6575f5ffd5b919050565b5f5f5f606084860312156105dd575f5ffd5b83359250602084013591506105f4604085016105af565b90509250925092565b5f6020828403121561060d575f5ffd5b81356001600160a01b038116811461035b575f5ffd5b5f5f5f5f60808587031215610636575f5ffd5b843593506020850135925061064d604086016105af565b915061065b606086016105af565b90509295919450925056fea2646970667358221220aaab683e8a6977fcc2b402df2fcb2a19d91bf4cd861c19cc10e7f30bf1595c1c64736f6c634300081c00330000000000000000000000006636a1ccbdf54485067304c1a590de016dead9f00000000000000000000000006636a1ccbdf54485067304c1a590de016dead9f0",
        "nonce": "0x390",
        "chainId": "0x64"
      },
      "additionalContracts": [],
      "isFixedGasLimit": false
    },
    {
      "hash": "0x87a7a2c0604353ba4067aa4a5d1cda30326379c0c6ff66df5dc131150553b58f",
      "transactionType": "CREATE",
      "contractName": "ZKEmailVerifier",
      "contractAddress": "0xb6132c8376802657c18049a8ac6c65fc8a85aa29",
      "function": null,
      "arguments": [
        "0x6636A1CCBdf54485067304C1a590DE016DeaD9F0",
        "0xA40C38E3B7C8FC30bE98f0DE17371497CcA70e35"
      ],
      "transaction": {
        "from": "0x6636a1ccbdf54485067304c1a590de016dead9f0",
        "gas": "0x7da9a",
        "value": "0x0",
        "input": "0x60a060405234801561000f575f5ffd5b506040516106e13803806106e183398101604081905261002e916100de565b816001600160a01b03811661005c57604051631e4fbdf760e01b81525f600482015260240160405180910390fd5b61006581610078565b506001600160a01b031660805250610116565b5f80546001600160a01b038381166001600160a01b0319831681178455604051919092169283917f8be0079c531659141344cd1fd0a4f28419497f9722a3daafe3b4186f6b6457e09190a35050565b6001600160a01b03811681146100db575f5ffd5b50565b5f5f604083850312156100ef575f5ffd5b82516100fa816100c7565b602084015190925061010b816100c7565b809150509250929050565b6080516105ad6101345f395f81816083015261019401526105ad5ff3fe608060405234801561000f575f5ffd5b506004361061007a575f3560e01c80638da5cb5b116100585780638da5cb5b146100ef578063a692b9ef146100ff578063efe1c95014610112578063f2fde38b1461013a575f5ffd5b8063400ad5ce1461007e578063715018a6146100c257806378bc13c2146100cc575b5f5ffd5b6100a57f000000000000000000000000000000000000000000000000000000000000000081565b6040516001600160a01b0390911681526020015b60405180910390f35b6100ca61014d565b005b6100df6100da366004610449565b610160565b60405190151581526020016100b9565b5f546001600160a01b03166100a5565b6100ca61010d36600461048e565b610321565b6100a56101203660046104bc565b60016020525f90815260409020546001600160a01b031681565b6100ca6101483660046104d3565b61038c565b6101556103ce565b61015e5f6103fa565b565b60608201355f908152600160205260408120546001600160a01b03168061018a575f91505061031b565b6001600160a01b037f0000000000000000000000000000000000000000000000000000000000000000166347e1a1d9602086013586356101d060a0890160808a016104f5565b6040516001600160e01b031960e086901b1681526004810193909352602483019190915267ffffffffffffffff166044820152606401602060405180830381865afa158015610221573d5f5f3e3d5ffd5b505050506040513d601f19601f82011682018060405250810190610245919061051c565b610252575f91505061031b565b6040805160c08101825285358152602080870135908201528186013591810191909152606080860135908201526001600160a01b03821690639cb286589060a08701906080808201906102a89084908b016104f5565b67ffffffffffffffff168152602001878152506040518363ffffffff1660e01b81526004016102d892919061053b565b602060405180830381865afa1580156102f3573d5f5f3e3d5ffd5b505050506040513d601f19601f82011682018060405250810190610317919061051c565b9150505b92915050565b6103296103ce565b5f8281526001602090815260409182902080546001600160a01b0319166001600160a01b038516908117909155915191825283917f5784d9c5cfa0188bf80d31e42ec5d1e25d3bc2f939ed3b17d11faaed5cbfcc1b910160405180910390a25050565b6103946103ce565b6001600160a01b0381166103c257604051631e4fbdf760e01b81525f60048201526024015b60405180910390fd5b6103cb816103fa565b50565b5f546001600160a01b0316331461015e5760405163118cdaa760e01b81523360048201526024016103b9565b5f80546001600160a01b038381166001600160a01b0319831681178455604051919092169283917f8be0079c531659141344cd1fd0a4f28419497f9722a3daafe3b4186f6b6457e09190a35050565b5f5f8284036101c081121561045c575f5ffd5b6101a081121561046a575f5ffd5b5091936101a08501359350915050565b6001600160a01b03811681146103cb575f5ffd5b5f5f6040838503121561049f575f5ffd5b8235915060208301356104b18161047a565b809150509250929050565b5f602082840312156104cc575f5ffd5b5035919050565b5f602082840312156104e3575f5ffd5b81356104ee8161047a565b9392505050565b5f60208284031215610505575f5ffd5b813567ffffffffffffffff811681146104ee575f5ffd5b5f6020828403121561052c575f5ffd5b815180151581146104ee575f5ffd5b6101c081016101008483376101008201835f5b600681101561056d57815183526020928301929091019060010161054e565b505050939250505056fea2646970667358221220d29ae89ff5d75bac577566d42a58e75643fc6d4b4e478497640502cdb0618c4664736f6c634300081c00330000000000000000000000006636a1ccbdf54485067304c1a590de016dead9f0000000000000000000000000a40c38e3b7c8fc30be98f0de17371497cca70e35",
        "nonce": "0x391",
        "chainId": "0x64"
      },
      "additionalContracts": [],
      "isFixedGasLimit": false
    },
    {
      "hash": "0xbcc3808fad762d64f53f9f4abdb65c3688b0c64136cda9dfb2e3848af8fd3d88",
      "transactionType": "CREATE",
      "contractName": "MockGroth16Verifier",
      "contractAddress": "0x01234d1f1ed3554c17a10941288195d90fd005c8",
      "function": null,
      "arguments": null,
      "transaction": {
        "from": "0x6636a1ccbdf54485067304c1a590de016dead9f0",
        "gas": "0x45117",
        "value": "0x0",
        "input": "0x60806040525f805460ff19166001179055348015601a575f5ffd5b50610291806100285f395ff3fe608060405234801561000f575f5ffd5b5060043610610055575f3560e01c806332524f2714610059578063653721471461006e5780639cb286581461008e578063c5834ba6146100a1578063f4b4dc2e146100c3575b5f5ffd5b61006c6100673660046101a9565b6100e3565b005b5f5461007a9060ff1681565b604051901515815260200160405180910390f35b61007a61009c3660046101db565b61012f565b61007a6100af366004610215565b60016020525f908152604090205460ff1681565b61006c6100d136600461022c565b5f805460ff1916911515919091179055565b8060015f846040516020016100f8919061024c565b60408051808303601f190181529181528151602092830120835290820192909252015f20805460ff19169115159190911790555050565b5f60015f83604051602001610144919061024c565b60408051601f198184030181529181528151602092830120835290820192909252015f205460ff161561017857505f61017f565b505f5460ff165b92915050565b8060c0810183101561017f575f5ffd5b803580151581146101a4575f5ffd5b919050565b5f5f60e083850312156101ba575f5ffd5b6101c48484610185565b91506101d260c08401610195565b90509250929050565b5f5f6101c083850312156101ed575f5ffd5b6101008301848111156101fe575f5ffd5b83925061020b8582610185565b9150509250929050565b5f60208284031215610225575f5ffd5b5035919050565b5f6020828403121561023c575f5ffd5b61024582610195565b9392505050565b60c0818101908383379291505056fea2646970667358221220c17b832a15d80225d555ed28171f85af012d79b5775009a695e5221e4e480c2d64736f6c634300081c0033",
        "nonce": "0x392",
        "chainId": "0x64"
      },
      "additionalContracts": [],
      "isFixedGasLimit": false
    },
    {
      "hash": "0x25aa006497a3e675d5df3187a30a3be3148683ea9253a58d3433424c522f3566",
      "transactionType": "CREATE",
      "contractName": "LifeOracle",
      "contractAddress": "0x22d645a97a056e673b290c1e537d18423ffa4d20",
      "function": null,
      "arguments": [
        "0x6636A1CCBdf54485067304C1a590DE016DeaD9F0",
        "0xb6132c8376802657C18049a8Ac6c65fC8A85AA29",
        "0xaf0e629bab05558ec79a04ffb31828259b64bb695209ea05b057a9099069431d",
        "0x373f1840b4ba84dfb9407f17aaadff5231b2028ae473ee93737a936af13b4ed1",
        "0xe4e21d06eee0ae2c34e0ce87fa95d207c01cb56afa75c3cf58ac8fd998e6c26c",
        "(1800, 900, 600, 7200, 1200, 10000000000000000, 50000000000000000)"
      ],
      "transaction": {
        "from": "0x6636a1ccbdf54485067304c1a590de016dead9f0",
        "gas": "0x2614f0",
        "value": "0x0",
        "input": "0x6101e0604052348015610010575f5ffd5b5060405161243638038061243683398101604081905261002f9161017e565b856001600160a01b03811661005d57604051631e4fbdf760e01b81525f600482015260240160405180910390fd5b610066816100e7565b50600180556001600160a01b03909416608090815260a093845260c092835260e09190915283516001600160401b0390811661010052602085015181166101205260408501518116610140526060850151811661016052908401511661018052908201516001600160601b039081166101a052910151166101c05250610293565b5f80546001600160a01b038381166001600160a01b0319831681178455604051919092169283917f8be0079c531659141344cd1fd0a4f28419497f9722a3daafe3b4186f6b6457e09190a35050565b6001600160a01b038116811461014a575f5ffd5b50565b80516001600160401b0381168114610163575f5ffd5b919050565b80516001600160601b0381168114610163575f5ffd5b5f5f5f5f5f5f868803610180811215610195575f5ffd5b87516101a081610136565b60208901519097506101b181610136565b604089015160608a015160808b01519298509096509450925060e0609f19820112156101db575f5ffd5b5060405160e081016001600160401b038111828210171561020a57634e487b7160e01b5f52604160045260245ffd5b60405261021960a0890161014d565b815261022760c0890161014d565b602082015261023860e0890161014d565b604082015261024a610100890161014d565b606082015261025c610120890161014d565b608082015261026e6101408901610168565b60a08201526102806101608901610168565b60c0820152809150509295509295509295565b60805160a05160c05160e05161010051610120516101405161016051610180516101a0516101c0516120ba61037c5f395f8181610327015261092601525f818161060e0152610e2701525f818161074e01526109e601525f81816104f8015261098001525f8181610660015261105401525f81816106dd015261191a01525f818161082e01528181610b44015261194201525f81816102e60152610e7001525f81816104920152611a7b01525f81816107fb01528181610b7101526114d101525f81816104c501528181610c9901528181610faa0152818161160d0152611bd601526120ba5ff3fe60806040526004361061021d575f3560e01c80637c67be491161011e578063c7df14e2116100a8578063ed1b5b001161006d578063ed1b5b0014610850578063f2fde38b1461086f578063fba3be361461088e578063fc3e7c1b146108ad578063fc9fabe2146108c2575f5ffd5b8063c7df14e214610770578063d6c0776e146107ab578063d94fe832146107bf578063e3b8d25d146107ea578063e91311a71461081d575f5ffd5b80639451a84a116100ee5780639451a84a1461069e578063a06db7dc146106cc578063a8bb4641146106ff578063b057edd11461071e578063bad58bba1461073d575f5ffd5b80637c67be49146105fd5780638594d1f014610630578063861a14121461064f5780638da5cb5b14610682575f5ffd5b80631d285c1d116101aa57806362ceb4e41161016f57806362ceb4e4146105585780636e2138bf1461056b5780636ebf7169146105ab578063715018a6146105ca578063799f23b5146105de575f5ffd5b80631d285c1d146104815780632b7ac3f3146104b457806345130e17146104e75780634f6304aa1461051a57806352759dd714610539575f5ffd5b80630989451a116101f05780630989451a146103b25780630e280163146103c7578063134f86e71461040557806315d7772d146104345780631bbda86714610453575f5ffd5b806301e647251461022157806306972a0b146102d557806307ab5394146103165780630952145814610361575b5f5ffd5b34801561022c575f5ffd5b506102b761023b366004611dc2565b600360208190525f9182526040909120805460018201546002830154929093015460ff8216936001600160a01b0361010084048116946001600160401b03600160a81b90950485169483811694600160401b909404909216926001600160601b03821692600160601b8304811692600160a01b90048116911689565b6040516102cc99989796959493929190611e0d565b60405180910390f35b3480156102e0575f5ffd5b506103087f000000000000000000000000000000000000000000000000000000000000000081565b6040519081526020016102cc565b348015610321575f5ffd5b506103497f000000000000000000000000000000000000000000000000000000000000000081565b6040516001600160601b0390911681526020016102cc565b34801561036c575f5ffd5b5061039a61037b366004611dc2565b5f9081526003602052604090205461010090046001600160a01b031690565b6040516001600160a01b0390911681526020016102cc565b6103c56103c0366004611dc2565b6108e1565b005b3480156103d2575f5ffd5b5061039a6103e1366004611dc2565b5f90815260036020526040902060010154600160401b90046001600160a01b031690565b348015610410575f5ffd5b5061042461041f366004611dc2565b610a11565b60405190151581526020016102cc565b34801561043f575f5ffd5b506103c561044e366004611e96565b610a3b565b34801561045e575f5ffd5b506104696201518081565b6040516001600160401b0390911681526020016102cc565b34801561048c575f5ffd5b506103087f000000000000000000000000000000000000000000000000000000000000000081565b3480156104bf575f5ffd5b5061039a7f000000000000000000000000000000000000000000000000000000000000000081565b3480156104f2575f5ffd5b506104697f000000000000000000000000000000000000000000000000000000000000000081565b348015610525575f5ffd5b50610469610534366004611ecc565b610b3e565b348015610544575f5ffd5b506103c5610553366004611e96565b610b6f565b6103c5610566366004611ee5565b610de2565b348015610576575f5ffd5b50610599610585366004611dc2565b60026020525f908152604090205460ff1681565b60405160ff90911681526020016102cc565b3480156105b6575f5ffd5b506103c56105c5366004611e96565b61107f565b3480156105d5575f5ffd5b506103c56112ea565b3480156105e9575f5ffd5b506103c56105f8366004611f11565b6112fd565b348015610608575f5ffd5b506103497f000000000000000000000000000000000000000000000000000000000000000081565b34801561063b575f5ffd5b506103c561064a366004611dc2565b61135c565b34801561065a575f5ffd5b506104697f000000000000000000000000000000000000000000000000000000000000000081565b34801561068d575f5ffd5b505f546001600160a01b031661039a565b3480156106a9575f5ffd5b506104246106b8366004611dc2565b60056020525f908152604090205460ff1681565b3480156106d7575f5ffd5b506104697f000000000000000000000000000000000000000000000000000000000000000081565b34801561070a575f5ffd5b506103c5610719366004611e96565b6114cf565b348015610729575f5ffd5b50600654610469906001600160401b031681565b348015610748575f5ffd5b506104697f000000000000000000000000000000000000000000000000000000000000000081565b34801561077b575f5ffd5b5061079e61078a366004611dc2565b5f9081526003602052604090205460ff1690565b6040516102cc9190611f44565b3480156107b6575f5ffd5b506103c5611774565b3480156107ca575f5ffd5b506103086107d9366004611f52565b60046020525f908152604090205481565b3480156107f5575f5ffd5b506103087f000000000000000000000000000000000000000000000000000000000000000081565b348015610828575f5ffd5b506104697f000000000000000000000000000000000000000000000000000000000000000081565b34801561085b575f5ffd5b5061042461086a366004611dc2565b611860565b34801561087a575f5ffd5b506103c5610889366004611f52565b61189f565b348015610899575f5ffd5b506104246108a8366004611dc2565b6118de565b3480156108b8575f5ffd5b5061030860075481565b3480156108cd575f5ffd5b50600854610469906001600160401b031681565b5f8181526003602052604090206001815460ff16600381111561090657610906611dd9565b14610924576040516310f3d9c960e01b815260040160405180910390fd5b7f00000000000000000000000000000000000000000000000000000000000000006001600160601b0316341461096d5760405163501c2aaf60e01b815260040160405180910390fd5b60018101546109a8906001600160401b037f000000000000000000000000000000000000000000000000000000000000000081169116611f8c565b4210156109c857604051633507731560e11b815260040160405180910390fd5b610a0d8183836001015f9054906101000a90046001600160401b03167f000000000000000000000000000000000000000000000000000000000000000034600161197e565b5050565b5f81815260036020819052604082205460ff1681811115610a3457610a34611dd9565b1492915050565b335f9081526004602052604090205480610a68576040516364a85fc960e11b815260040160405180910390fd5b5f8181526003602052604090206002815460ff166003811115610a8d57610a8d611dd9565b03610aab576040516307d27b3b60e31b815260040160405180910390fd5b6001815460ff166003811115610ac357610ac3611dd9565b14610ae1576040516310f3d9c960e01b815260040160405180910390fd5b610aec818385611a79565b817f4008cb43281ff992ccfddef489535a56c84010c67a166a1441eb17b928754ad0610b1e60a0860160808701611ecc565b6040516001600160401b03909116815260200160405180910390a2505050565b5f610b697f000000000000000000000000000000000000000000000000000000000000000083611f9f565b92915050565b7f0000000000000000000000000000000000000000000000000000000000000000816060013514610bb357604051632555cfb560e01b815260040160405180910390fd5b6020808201355f908152600290915260408120546001169003610be9576040516303e8a48760e51b815260040160405180910390fd5b335f9081526004602052604090205415610c1657604051636d6d97d960e01b815260040160405180910390fd5b6040808201355f9081526003602052206001815460ff166003811115610c3e57610c3e611dd9565b14610c5c576040516310f3d9c960e01b815260040160405180910390fd5b610c82610c6f60a0840160808501611ecc565b60018301546001600160401b0316611ca0565b604051633c5e09e160e11b81526001600160a01b037f000000000000000000000000000000000000000000000000000000000000000016906378bc13c290610cd09085903390600401611fd8565b602060405180830381865afa158015610ceb573d5f5f3e3d5ffd5b505050506040513d601f19601f82011682018060405250810190610d0f9190612033565b610d2c576040516309bde33960e01b815260040160405180910390fd5b8054610100908190046001600160a01b03165f818152600460205260408120558254610100600160a81b03191633909202919091178255610d7360a0840160808501611ecc565b60018301805467ffffffffffffffff19166001600160401b0392909216919091179055335f81815260046020526040808220868201359081905590516001600160a01b038516927f7fbd60af89834ef6f84f33193284dabccf00dcf24aa8fab7b54ddda9bcc3822f91a4505050565b5f8281526003602052604090206001815460ff166003811115610e0757610e07611dd9565b14610e25576040516310f3d9c960e01b815260040160405180910390fd5b7f00000000000000000000000000000000000000000000000000000000000000006001600160601b03163414610e6e5760405163501c2aaf60e01b815260040160405180910390fd5b7f0000000000000000000000000000000000000000000000000000000000000000826060013514610eb257604051632555cfb560e01b815260040160405180910390fd5b6020808301355f908152600290915260408120546004169003610ee8576040516303e8a48760e51b815260040160405180910390fd5b6040808301355f9081526005602052205460ff1615610f1a5760405163f357433d60e01b815260040160405180910390fd5b6040808301355f908152600560205220805460ff19166001179055610f4e610f4860a0840160808501611ecc565b5f611ca0565b60018101546001600160401b0316610f6c60a0840160808501611ecc565b6001600160401b031611610f935760405163069ca23b60e51b815260040160405180910390fd5b604051633c5e09e160e11b81526001600160a01b037f000000000000000000000000000000000000000000000000000000000000000016906378bc13c290610fe19085908790600401611fd8565b602060405180830381865afa158015610ffc573d5f5f3e3d5ffd5b505050506040513d601f19601f820116820180604052508101906110209190612033565b61103d576040516309bde33960e01b815260040160405180910390fd5b61107a818461105260a0860160808701611ecc565b7f0000000000000000000000000000000000000000000000000000000000000000345f61197e565b505050565b611087611d1d565b335f90815260046020526040902054806110b4576040516364a85fc960e11b815260040160405180910390fd5b5f8181526003602052604090206002815460ff1660038111156110d9576110d9611dd9565b146110f757604051635b95129160e11b815260040160405180910390fd5b60038101546001600160401b031642111561112557604051632f23cfcd60e01b815260040160405180910390fd5b6002810154600160a01b90046001600160401b031661114a60a0850160808601611ecc565b6001600160401b03161161117157604051638f37077b60e01b815260040160405180910390fd5b61117c818385611a79565b60018181018054600284018054855460ff19169094178555600160401b600160e01b031982169092556001600160e01b0319831690915560038301805467ffffffffffffffff191690556040516001600160601b039092168083526001600160a01b03600160401b9092049190911691829085907f7a3c08e6775ac7d06a8133a2fb09bd4e567d996efb7c696463d216c0b92cc38e9060200160405180910390a3837f4008cb43281ff992ccfddef489535a56c84010c67a166a1441eb17b928754ad061124f60a0880160808901611ecc565b6040516001600160401b03909116815260200160405180910390a26040515f9033906001600160601b038416908381818185875af1925050503d805f81146112b2576040519150601f19603f3d011682016040523d82523d5f602084013e6112b7565b606091505b50509050806112d9576040516312171d8360e31b815260040160405180910390fd5b50505050506112e760018055565b50565b6112f2611d47565b6112fb5f611d73565b565b611305611d47565b5f82815260026020908152604091829020805460ff191660ff8516908117909155915191825283917fb25583a674106e80ada6266af0fade6be76a81c3cc3b921ab0e70fa63f92a70a910160405180910390a25050565b611364611d1d565b5f8181526003602052604090206002815460ff16600381111561138957611389611dd9565b146113a757604051635b95129160e11b815260040160405180910390fd5b60038101546001600160401b031642116113d45760405163a41bfbc760e01b815260040160405180910390fd5b8054600360ff1990911617815560018101546002820180546bffffffffffffffffffffffff198116909155604051600160401b9092046001600160a01b0316916001600160601b0390911690829085907f6e33807d64701df17272aee99843343a68ed109bd132fc9396f77d132e3b992d905f90a35f826001600160a01b0316826001600160601b03166040515f6040518083038185875af1925050503d805f811461149b576040519150601f19603f3d011682016040523d82523d5f602084013e6114a0565b606091505b50509050806114c2576040516312171d8360e31b815260040160405180910390fd5b505050506112e760018055565b7f000000000000000000000000000000000000000000000000000000000000000081606001351461151357604051632555cfb560e01b815260040160405180910390fd5b6020808201355f908152600290915260408120546001169003611549576040516303e8a48760e51b815260040160405180910390fd5b335f908152600460205260409020541561157657604051636d6d97d960e01b815260040160405180910390fd5b6040808201355f908152600360205290812090815460ff16600381111561159f5761159f611dd9565b146115bd5760405163338f84eb60e01b815260040160405180910390fd5b5f62278d0042116115ce575f6115db565b6115db62278d0042612052565b90506115f66115f060a0850160808601611ecc565b82611ca0565b604051633c5e09e160e11b81526001600160a01b037f000000000000000000000000000000000000000000000000000000000000000016906378bc13c2906116449086903390600401611fd8565b602060405180830381865afa15801561165f573d5f5f3e3d5ffd5b505050506040513d601f19601f820116820180604052508101906116839190612033565b6116a0576040516309bde33960e01b815260040160405180910390fd5b815460016001600160e81b0319909116336101000267ffffffffffffffff60a81b191617600160a81b426001600160401b031602171782556116e860a0840160808501611ecc565b60018301805467ffffffffffffffff19166001600160401b0392909216919091179055335f818152600460205260409081902090850135908190557fd1185443290a2bd9f3515f6cb9293926429b998d4428151f25dc0b559db54f1761175460a0870160808801611ecc565b6040516001600160401b03909116815260200160405180910390a3505050565b5f61177e42610b3e565b6006549091506001600160401b03808316911614158061179e5750600754155b156112e7576006805467ffffffffffffffff19166001600160401b0383161790556117ca600143612052565b604080519140602083015230908201526001600160401b038216606082015260800160408051808303601f1901815290829052805160209182012060078190556008805467ffffffffffffffff1916426001600160401b03908116919091179091559083528316917fc4b05e87369e27861c21bed6341b6599bff5cf0c963054517517265317e70c98910160405180910390a250565b5f8181526003602052604081206001815460ff16600381111561188557611885611dd9565b1480156118985750611896836118de565b155b9392505050565b6118a7611d47565b6001600160a01b0381166118d557604051631e4fbdf760e01b81525f60048201526024015b60405180910390fd5b6112e781611d73565b5f8181526003602052604081206001815460ff16600381111561190357611903611dd9565b148015611898575060018101546001600160401b037f000000000000000000000000000000000000000000000000000000000000000081169161196a917f000000000000000000000000000000000000000000000000000000000000000081169116611f8c565b6119749190611f8c565b4211159392505050565b8554600260ff1990911681178755600187018054600160401b600160e01b03191633600160401b02179055860180546001600160601b0384166001600160a01b031990911617600160601b426001600160401b03818116929092029290921767ffffffffffffffff60a01b1916600160a01b9188169190910217909155611a06908490612065565b60038701805467ffffffffffffffff19166001600160401b03928316908117909155604080519287168352602083019190915282151590820152339086907f483904c6d4ab36fdef967409df728564f31245c0dd4240677475e0f6fbf44c5c9060600160405180910390a3505050505050565b7f0000000000000000000000000000000000000000000000000000000000000000816060013514611abd57604051632555cfb560e01b815260040160405180910390fd5b6020808201355f90815260029182905260408120549091169003611af4576040516303e8a48760e51b815260040160405180910390fd5b81816040013514611b18576040516301e606db60e21b815260040160405180910390fd5b611b20611774565b6008546001600160401b0316611b3c60a0830160808401611ecc565b6001600160401b03161015611b6457604051638f37077b60e01b815260040160405180910390fd5b60018301546001600160401b0316611b8260a0830160808401611ecc565b6001600160401b031611611ba957604051638f37077b60e01b815260040160405180910390fd5b611bbc610f4860a0830160808401611ecc565b600754604051633c5e09e160e11b81526001600160a01b037f000000000000000000000000000000000000000000000000000000000000000016916378bc13c291611c0b918591600401611fd8565b602060405180830381865afa158015611c26573d5f5f3e3d5ffd5b505050506040513d601f19601f82011682018060405250810190611c4a9190612033565b611c67576040516309bde33960e01b815260040160405180910390fd5b611c7760a0820160808301611ecc565b600193909301805467ffffffffffffffff19166001600160401b03909416939093179092555050565b611cad6201518042611f8c565b826001600160401b03161115611cd657604051631b7f184160e21b815260040160405180910390fd5b6001600160401b03811615801590611cff5750806001600160401b0316826001600160401b0316105b15610a0d57604051638f37077b60e01b815260040160405180910390fd5b600260015403611d4057604051633ee5aeb560e01b815260040160405180910390fd5b6002600155565b5f546001600160a01b031633146112fb5760405163118cdaa760e01b81523360048201526024016118cc565b5f80546001600160a01b038381166001600160a01b0319831681178455604051919092169283917f8be0079c531659141344cd1fd0a4f28419497f9722a3daafe3b4186f6b6457e09190a35050565b5f60208284031215611dd2575f5ffd5b5035919050565b634e487b7160e01b5f52602160045260245ffd5b60048110611e0957634e487b7160e01b5f52602160045260245ffd5b9052565b6101208101611e1c828c611ded565b6001600160a01b03998a1660208301526001600160401b03988916604083015296881660608201529490971660808501526001600160601b039290921660a0840152841660c0830152831660e08201529290911661010090920191909152919050565b5f6101a08284031215611e90575f5ffd5b50919050565b5f6101a08284031215611ea7575f5ffd5b6118988383611e7f565b80356001600160401b0381168114611ec7575f5ffd5b919050565b5f60208284031215611edc575f5ffd5b61189882611eb1565b5f5f6101c08385031215611ef7575f5ffd5b82359150611f088460208501611e7f565b90509250929050565b5f5f60408385031215611f22575f5ffd5b82359150602083013560ff81168114611f39575f5ffd5b809150509250929050565b60208101610b698284611ded565b5f60208284031215611f62575f5ffd5b81356001600160a01b0381168114611898575f5ffd5b634e487b7160e01b5f52601160045260245ffd5b80820180821115610b6957610b69611f78565b5f6001600160401b03831680611fc357634e487b7160e01b5f52601260045260245ffd5b806001600160401b0384160491505092915050565b823581526020808401359082015260408084013590820152606080840135908201526101c081016001600160401b0361201360808601611eb1565b16608083015261010060a0850160a0840137826101a08301529392505050565b5f60208284031215612043575f5ffd5b81518015158114611898575f5ffd5b81810381811115610b6957610b69611f78565b6001600160401b038181168382160190811115610b6957610b69611f7856fea2646970667358221220e020a1ea2533aba38981689b5a2af82c36ba3a461dff898fd5d9dd50cfba4bc964736f6c634300081c00330000000000000000000000006636a1ccbdf54485067304c1a590de016dead9f0000000000000000000000000b6132c8376802657c18049a8ac6c65fc8a85aa29af0e629bab05558ec79a04ffb31828259b64bb695209ea05b057a9099069431d373f1840b4ba84dfb9407f17aaadff5231b2028ae473ee93737a936af13b4ed1e4e21d06eee0ae2c34e0ce87fa95d207c01cb56afa75c3cf58ac8fd998e6c26c0000000000000000000000000000000000000000000000000000000000000708000000000000000000000000000000000000000000000000000000000000038400000000000000000000000000000000000000000000000000000000000002580000000000000000000000000000000000000000000000000000000000001c2000000000000000000000000000000000000000000000000000000000000004b0000000000000000000000000000000000000000000000000002386f26fc1000000000000000000000000000000000000000000000000000000b1a2bc2ec50000",
        "nonce": "0x393",
        "chainId": "0x64"
      },
      "additionalContracts": [],
      "isFixedGasLimit": false
    },
    {
      "hash": "0xd6385ba34cab0c3c2d27959e784caf11db22d61dfdc968977243e4e9994536b3",
      "transactionType": "CREATE",
      "contractName": "TontineFactory",
      "contractAddress": "0xb525b70b256f355331d687bef70f9b97104b2784",
      "function": null,
      "arguments": [
        "0x22D645A97A056e673B290C1e537D18423FFa4D20",
        "0xaf204776c7245bF4147c2612BF6e5972Ee483701",
        "0xe91D153E0b41518A2Ce8Dd3D7944Fa863463a97d"
      ],
      "transaction": {
        "from": "0x6636a1ccbdf54485067304c1a590de016dead9f0",
        "gas": "0x3824a0",
        "value": "0x0",
        "input": "0x60e060405234801561000f575f5ffd5b5060405161334c38038061334c83398101604081905261002e91610062565b6001600160a01b0392831660805290821660a0521660c0526100ac565b6001600160a01b038116811461005f575f5ffd5b50565b5f5f5f60608486031215610074575f5ffd5b835161007f8161004b565b60208501519093506100908161004b565b60408501519092506100a18161004b565b809150509250925092565b60805160a05160c0516132636100e95f395f818161013901526101a001525f81816083015261017f01525f818160c7015261015e01526132635ff3fe608060405234801561000f575f5ffd5b506004361061007a575f3560e01c8063ac4afa3811610058578063ac4afa38146100fc578063c5c63e651461010f578063f525cb6814610124578063ff5bc34b14610134575f5ffd5b80635b2eeca41461007e5780637dc0d1d0146100c2578063a12911aa146100e9575b5f5ffd5b6100a57f000000000000000000000000000000000000000000000000000000000000000081565b6040516001600160a01b0390911681526020015b60405180910390f35b6100a57f000000000000000000000000000000000000000000000000000000000000000081565b6100a56100f7366004610436565b61015b565b6100a561010a3660046104fa565b610285565b6101176102ac565b6040516100b99190610511565b5f546040519081526020016100b9565b6100a57f000000000000000000000000000000000000000000000000000000000000000081565b5f7f00000000000000000000000000000000000000000000000000000000000000007f00000000000000000000000000000000000000000000000000000000000000007f0000000000000000000000000000000000000000000000000000000000000000846040516101cc9061030b565b6101d9949392919061058a565b604051809103905ff0801580156101f2573d5f5f3e3d5ffd5b505f80546001810182559080527f290decd9548b62a8d60345a988386fc84ba6bc95484008f6362f93160ef3e5630180546001600160a01b0319166001600160a01b0383169081179091558351602085015160405193945091927fcf549807c1659a55b35235e2dc25c4f1b5af742176a6bba1e27135defb29f38592610278929161063a565b60405180910390a2919050565b5f8181548110610293575f80fd5b5f918252602090912001546001600160a01b0316905081565b60605f80548060200260200160405190810160405280929190818152602001828054801561030157602002820191905f5260205f20905b81546001600160a01b031681526001909101906020018083116102e3575b5050505050905090565b612bc88061066683390190565b634e487b7160e01b5f52604160045260245ffd5b60405160e0810167ffffffffffffffff8111828210171561034f5761034f610318565b60405290565b5f82601f830112610364575f5ffd5b813567ffffffffffffffff81111561037e5761037e610318565b604051601f8201601f19908116603f0116810167ffffffffffffffff811182821017156103ad576103ad610318565b6040528181528382016020018510156103c4575f5ffd5b816020850160208301375f918101602001919091529392505050565b803567ffffffffffffffff811681146103f7575f5ffd5b919050565b803563ffffffff811681146103f7575f5ffd5b803561ffff811681146103f7575f5ffd5b80356001600160a01b03811681146103f7575f5ffd5b5f60208284031215610446575f5ffd5b813567ffffffffffffffff81111561045c575f5ffd5b820160e0818503121561046d575f5ffd5b61047561032c565b813567ffffffffffffffff81111561048b575f5ffd5b61049786828501610355565b8252506104a6602083016103e0565b602082015260408281013590820152606080830135908201526104cb608083016103fc565b60808201526104dc60a0830161040f565b60a08201526104ed60c08301610420565b60c0820152949350505050565b5f6020828403121561050a575f5ffd5b5035919050565b602080825282518282018190525f918401906040840190835b818110156105515783516001600160a01b031683526020938401939092019160010161052a565b509095945050505050565b5f81518084528060208401602086015e5f602082860101526020601f19601f83011685010191505092915050565b6001600160a01b038581168252848116602083015283166040820152608060608201819052825160e0918301919091525f906105ca61016084018261055c565b905067ffffffffffffffff60208501511660a0840152604084015160c0840152606084015160e084015263ffffffff60808501511661010084015261ffff60a08501511661012084015260c084015161062f6101408501826001600160a01b03169052565b509695505050505050565b604081525f61064c604083018561055c565b905067ffffffffffffffff83166020830152939250505056fe6101a0604052348015610010575f5ffd5b50604051612bc8380380612bc883398101604081905261002f91610368565b60015f8190556001600160a01b0380861660805284811660a052831660c052815161005a90826104e8565b5060208101516001600160401b031660e052604081015161010052606081015161012052608081015163ffffffff166101405260a081015161ffff166101605260c08101516001600160a01b03908116610180526100bc908316845f196100c5565b505050506105a2565b604080516001600160a01b038416602482015260448082018490528251808303909101815260649091019091526020810180516001600160e01b0390811663095ea7b360e01b1790915261011d908590839061018916565b61018357604080516001600160a01b03851660248201525f6044808301919091528251808303909101815260649091019091526020810180516001600160e01b0390811663095ea7b360e01b179091526101799186916101d216565b61018384826101d2565b50505050565b5f5f5f5f60205f8651602088015f8a5af192503d91505f5190508280156101c8575081156101ba57806001146101c8565b5f866001600160a01b03163b115b9695505050505050565b5f5f60205f8451602086015f885af1806101f1576040513d5f823e3d81fd5b50505f513d91508115610208578060011415610215565b6001600160a01b0384163b155b1561018357604051635274afe760e01b81526001600160a01b038516600482015260240160405180910390fd5b6001600160a01b0381168114610256575f5ffd5b50565b634e487b7160e01b5f52604160045260245ffd5b60405160e081016001600160401b038111828210171561028f5761028f610259565b60405290565b5f82601f8301126102a4575f5ffd5b81516001600160401b038111156102bd576102bd610259565b604051601f8201601f19908116603f011681016001600160401b03811182821017156102eb576102eb610259565b604052818152838201602001851015610302575f5ffd5b8160208501602083015e5f918101602001919091529392505050565b80516001600160401b0381168114610334575f5ffd5b919050565b805163ffffffff81168114610334575f5ffd5b805161ffff81168114610334575f5ffd5b805161033481610242565b5f5f5f5f6080858703121561037b575f5ffd5b845161038681610242565b602086015190945061039781610242565b60408601519093506103a881610242565b60608601519092506001600160401b038111156103c3575f5ffd5b850160e081880312156103d4575f5ffd5b6103dc61026d565b81516001600160401b038111156103f1575f5ffd5b6103fd89828501610295565b82525061040c6020830161031e565b6020820152604082810151908201526060808301519082015261043160808301610339565b608082015261044260a0830161034c565b60a082015261045360c0830161035d565b60c082015294979396509194505050565b600181811c9082168061047857607f821691505b60208210810361049657634e487b7160e01b5f52602260045260245ffd5b50919050565b601f8211156104e357805f5260205f20601f840160051c810160208510156104c15750805b601f840160051c820191505b818110156104e0575f81556001016104cd565b50505b505050565b81516001600160401b0381111561050157610501610259565b6105158161050f8454610464565b8461049c565b6020601f821160018114610547575f83156105305750848201515b5f19600385901b1c1916600184901b1784556104e0565b5f84815260208120601f198516915b828110156105765787850151825560209485019460019092019101610556565b508482101561059357868401515f19600387901b60f8161c191681555b50505050600190811b01905550565b60805160a05160c05160e05161010051610120516101405161016051610180516124fd6106cb5f395f8181610483015261109601525f81816103ee0152610e0f01525f81816105cc0152611c7c01525f81816104bd0152611ce501525f818161057a0152611cbc01525f8181610239015281816114e8015261188b01525f818161062901526117b001525f8181610444015281816107440152818161095c0152818161099e015281816110740152818161112b01528181611165015281816111b601528181611763015281816117f601528181611aec0152611b2401525f81816104f70152818161083601528181610cdf01528181610e6201528181610f2b015281816113720152818161143f0152818161197e01528181611d630152611e0a01526124fd5ff3fe608060405234801561000f575f5ffd5b50600436106101fd575f3560e01c80636d9ec54011610114578063a1b60c8c116100a9578063ca48723111610079578063ca487231146105ee578063e9fad8ee14610601578063fcd84b4714610609578063fd49fc4f1461061c578063ff5bc34b14610624575f5ffd5b8063a1b60c8c14610575578063a1d4ddd21461059c578063a4e2d634146105af578063bf4386a0146105c7575f5ffd5b80638de206fd116100e45780638de206fd146105215780639273bbb61461053457806396c82e57146105475780639f0c30dc14610550575f5ffd5b80636d9ec540146104b85780637a849435146104df5780637dc0d1d0146104f25780637fe4ef4714610519575f5ffd5b80631f718bf411610195578063427e401e11610165578063427e401e1461042357806347e4805b146104365780635b2eeca41461043f57806361d027b31461047e5780636c7f1542146104a5575f5ffd5b80631f718bf4146102be5780631fd3c85b146103c3578063395e2c31146103d6578063415307cc146103e9575f5ffd5b806317d33acd116101d057806317d33acd146102855780631bdbf2201461028e5780631c31f710146102965780631cae87e1146102ab575f5ffd5b806306fdde0314610201578063099f24741461021f5780630d6680871461023457806311aee38014610273575b5f5ffd5b61020961064b565b6040516102169190612278565b60405180910390f35b6102276106d7565b60405161021691906122ad565b61025b7f000000000000000000000000000000000000000000000000000000000000000081565b6040516001600160401b039091168152602001610216565b6003545b604051908152602001610216565b61027760065481565b61027761072d565b6102a96102a4366004612303565b61081f565b005b6102a96102b936600461231e565b610947565b6103516102cc36600461237f565b600260208190525f918252604090912080546001820154928201546003830154600484015460059094015460ff8085169661010086049091169562010000860461ffff90811696640100000000810490911695600160301b820463ffffffff1695600160501b9092046001600160401b0316946001600160a01b03909416939092908b565b604080519b15158c5299151560208c015261ffff988916998b019990995296909516606089015263ffffffff90931660808801526001600160401b0390911660a08701526001600160a01b031660c086015260e085015261010084015261012083015261014082015261016001610216565b6102776103d136600461237f565b610a27565b6102776103e436600461237f565b610a46565b6104107f000000000000000000000000000000000000000000000000000000000000000081565b60405161ffff9091168152602001610216565b61041061043136600461237f565b610acb565b61041061138881565b6104667f000000000000000000000000000000000000000000000000000000000000000081565b6040516001600160a01b039091168152602001610216565b6104667f000000000000000000000000000000000000000000000000000000000000000081565b6102776104b336600461237f565b610bd9565b6102777f000000000000000000000000000000000000000000000000000000000000000081565b6102a96104ed36600461237f565b610c6b565b6104667f000000000000000000000000000000000000000000000000000000000000000081565b61027761119f565b6102a961052f36600461237f565b6111ed565b6102a961054236600461237f565b61132e565b61027760055481565b6004546105609063ffffffff1681565b60405163ffffffff9091168152602001610216565b6102777f000000000000000000000000000000000000000000000000000000000000000081565b6102a96105aa36600461231e565b61179b565b6105b7611881565b6040519015158152602001610216565b6105607f000000000000000000000000000000000000000000000000000000000000000081565b6104106105fc36600461237f565b6118b1565b6102a9611939565b61027761061736600461237f565b611b21565b610560600c81565b6104667f000000000000000000000000000000000000000000000000000000000000000081565b6001805461065890612396565b80601f016020809104026020016040519081016040528092919081815260200182805461068490612396565b80156106cf5780601f106106a6576101008083540402835291602001916106cf565b820191905f5260205f20905b8154815290600101906020018083116106b257829003601f168201915b505050505081565b6060600380548060200260200160405190810160405280929190818152602001828054801561072357602002820191905f5260205f20905b81548152602001906001019080831161070f575b5050505050905090565b6040516370a0823160e01b81523060048201525f907f00000000000000000000000000000000000000000000000000000000000000006001600160a01b0316906307a2d13a9082906370a0823190602401602060405180830381865afa158015610799573d5f5f3e3d5ffd5b505050506040513d601f19601f820116820180604052508101906107bd91906123ce565b6040518263ffffffff1660e01b81526004016107db91815260200190565b602060405180830381865afa1580156107f6573d5f5f3e3d5ffd5b505050506040513d601f19601f8201168201806040525081019061081a91906123ce565b905090565b604051636ca7f41960e11b81523360048201525f907f00000000000000000000000000000000000000000000000000000000000000006001600160a01b03169063d94fe83290602401602060405180830381865afa158015610883573d5f5f3e3d5ffd5b505050506040513d601f19601f820116820180604052508101906108a791906123ce565b5f81815260026020526040902080549192509060ff1615806108cf57508054610100900460ff165b156108ed5760405163148fe22160e11b815260040160405180910390fd5b6001810180546001600160a01b0319166001600160a01b03851690811790915560405190815282907fd78a4e0d983d806f6088f139d426f4cd886ba85ff8ba54c7b7c55714b228937f9060200160405180910390a2505050565b61094f611bbd565b6109846001600160a01b037f000000000000000000000000000000000000000000000000000000000000000016333087611be5565b6040516303d1689d60e11b815260048101859052610a18907f00000000000000000000000000000000000000000000000000000000000000006001600160a01b0316906307a2d13a90602401602060405180830381865afa1580156109eb573d5f5f3e3d5ffd5b505050506040513d601f19601f82011682018060405250810190610a0f91906123ce565b85858585611c4c565b610a2160015f55565b50505050565b60038181548110610a36575f80fd5b5f91825260209091200154905081565b5f818152600260205260408120805460ff161580610a6a57508054610100900460ff165b15610a7757505f92915050565b610a84612710600c6123f9565b8154610aa3906105fc90600160501b90046001600160401b03166120ae565b61ffff16610ab085610bd9565b610aba91906123f9565b610ac49190612410565b9392505050565b5f6019821015610add57506008919050565b601e821015610aee5750600a919050565b6023821015610aff5750600c919050565b6028821015610b1057506010919050565b602d821015610b2157506016919050565b6032821015610b3257506021919050565b6037821015610b4357506032919050565b603c821015610b545750604e919050565b6041821015610b6557506078919050565b6046821015610b76575060b4919050565b604b821015610b885750610118919050565b6050821015610b9a57506101c2919050565b6055821015610bac57506102ee919050565b605a821015610bbe5750610514919050565b605f821015610bd05750610898919050565b50610dac919050565b5f818152600260205260408120805460ff161580610bfd57508054610100900460ff165b15610c0a57505f92915050565b5f8160050154676765c793fa10079d601b1b8360040154600654610c2e91906123f9565b610c389190612410565b610c42919061242f565b90508082600301548360020154610c599190612442565b610c639190612442565b949350505050565b610c73611bbd565b5f818152600260205260409020805460ff16610ca25760405163148fe22160e11b815260040160405180910390fd5b8054610100900460ff1615610cc95760405162560ff960e81b815260040160405180910390fd5b60405163134f86e760e01b8152600481018390527f00000000000000000000000000000000000000000000000000000000000000006001600160a01b03169063134f86e790602401602060405180830381865afa158015610d2c573d5f5f3e3d5ffd5b505050506040513d601f19601f82011682018060405250810190610d509190612455565b610d6d57604051633213d1a960e01b815260040160405180910390fd5b610d76816120f7565b806004015460055f828254610d8b919061242f565b909155505060048054600191905f90610dab90849063ffffffff16612474565b92506101000a81548163ffffffff021916908363ffffffff1602179055505f81600301548260020154610dde9190612442565b825461ff0019166101001783555f600284018190556003840181905560048401819055909150612710610e3561ffff7f000000000000000000000000000000000000000000000000000000000000000016846123f9565b610e3f9190612410565b604051630e28016360e01b8152600481018690529091505f906001600160a01b037f00000000000000000000000000000000000000000000000000000000000000001690630e28016390602401602060405180830381865afa158015610ea7573d5f5f3e3d5ffd5b505050506040513d601f19601f82011682018060405250810190610ecb9190612490565b90506001600160a01b038116610edf575f91505b60018401545f906001600160a01b0316610ef7611881565b610fa457610f05848661242f565b91506001600160a01b038116610f9f5760405163012a428b60e31b8152600481018890527f00000000000000000000000000000000000000000000000000000000000000006001600160a01b031690630952145890602401602060405180830381865afa158015610f78573d5f5f3e3d5ffd5b505050506040513d601f19601f82011682018060405250810190610f9c9190612490565b90505b610fe4565b6001600160a01b03811615610fe45785546127109062010000900461ffff16610fcd868861242f565b610fd791906123f9565b610fe19190612410565b91505b5f82610ff0868861242f565b610ffa919061242f565b905080156110bb576005541561104757600554611022676765c793fa10079d601b1b836123f9565b61102c9190612410565b60065f82825461103c9190612442565b909155506110bb9050565b6001600160a01b03821615611067576110608184612442565b92506110bb565b6110bb6001600160a01b037f0000000000000000000000000000000000000000000000000000000000000000167f000000000000000000000000000000000000000000000000000000000000000083612184565b877f42133b0086d8e4bd61a205986c05d712d8923683117ad4920f0890b3e747bd77878786806110eb838561242f565b6110f5919061242f565b60408051948552602085019390935291830152606082015260800160405180910390a28415611152576111526001600160a01b037f0000000000000000000000000000000000000000000000000000000000000000168587612184565b821561118c5761118c6001600160a01b037f0000000000000000000000000000000000000000000000000000000000000000168385612184565b5050505050505061119c60015f55565b50565b6040516370a0823160e01b81523060048201525f907f00000000000000000000000000000000000000000000000000000000000000006001600160a01b0316906370a08231906024016107db565b5f818152600260205260409020805460ff16158061121157508054610100900460ff165b1561122f5760405163148fe22160e11b815260040160405180910390fd5b611238816120f7565b80545f906112599061043190600160501b90046001600160401b03166120ae565b90505f61127c836002015483855f0160029054906101000a900461ffff166121ba565b9050808360040154600554611291919061242f565b61129b9190612442565b600555825465ffff00000000191664010000000061ffff84160217835560048301819055600654676765c793fa10079d601b1b906112da9083906123f9565b6112e49190612410565b60058401556040805161ffff841681526020810183905285917fa53ada50ac8cc8ff965a81cc6f7bb67de0b3976c823f50b3e6c8ae60c99c37d7910160405180910390a250505050565b611336611bbd565b61133e611881565b61135b57604051635c8e750760e01b815260040160405180910390fd5b604051636ca7f41960e11b81523360048201525f907f00000000000000000000000000000000000000000000000000000000000000006001600160a01b03169063d94fe83290602401602060405180830381865afa1580156113bf573d5f5f3e3d5ffd5b505050506040513d601f19601f820116820180604052508101906113e391906123ce565b5f81815260026020526040902080549192509060ff16158061140b57508054610100900460ff165b156114295760405163148fe22160e11b815260040160405180910390fd5b604051637dd1df1b60e11b8152600481018390527f00000000000000000000000000000000000000000000000000000000000000006001600160a01b03169063fba3be3690602401602060405180830381865afa15801561148c573d5f5f3e3d5ffd5b505050506040513d601f19601f820116820180604052508101906114b09190612455565b6114cd5760405163714e546160e11b815260040160405180910390fd5b6114d6826111ed565b5f62278d0061150e6001600160401b037f0000000000000000000000000000000000000000000000000000000000000000164261242f565b6115189190612410565b6115239060016124ab565b825490915063ffffffff600160301b9091048116908216116115585760405163d2c0cf5760e01b815260040160405180910390fd5b81545f9061157390600160301b900463ffffffff1683612474565b9050600c63ffffffff821611156115885750600c5b5f8360030154846002015461159d9190612442565b90505f6115ad612710600c6123f9565b855463ffffffff8516906115d4906105fc90600160501b90046001600160401b03166120ae565b6115e29061ffff16856123f9565b6115ec91906123f9565b6115f69190612410565b905080871115611619576040516320d0613160e21b815260040160405180910390fd5b845469ffffffff0000000000001916600160301b63ffffffff86160217855560038501545f90881115611650578560030154611652565b875b905080866003015f828254611667919061242f565b909155505f9050611678828a61242f565b905080156117145780876002015f828254611693919061242f565b9091555050600287015487545f916116bf9161ffff6401000000008204811691620100009004166121ba565b90508088600401546005546116d4919061242f565b6116de9190612442565b60055560048801819055600654676765c793fa10079d601b1b906117039083906123f9565b61170d9190612410565b6005890155505b604080518a815263ffffffff8716602082015233918a917f907ca09dd0960a1ee95a532da6a4661d2b8de11d05824d33f95e42e60dc81426910160405180910390a361178a6001600160a01b037f000000000000000000000000000000000000000000000000000000000000000016338b612184565b505050505050505061119c60015f55565b6117a3611bbd565b6117d86001600160a01b037f000000000000000000000000000000000000000000000000000000000000000016333087611be5565b604051636e553f6560e01b8152600481018590523060248201525f907f00000000000000000000000000000000000000000000000000000000000000006001600160a01b031690636e553f65906044016020604051808303815f875af1158015611844573d5f5f3e3d5ffd5b505050506040513d601f19601f8201168201806040525081019061186891906123ce565b90506118778582868686611c4c565b50610a2160015f55565b6001600160401b037f00000000000000000000000000000000000000000000000000000000000000001642101590565b5f603c8210156118c45750610190919050565b60418210156118d657506101f4919050565b60468210156118e85750610230919050565b604b8210156118fa575061028a919050565b605082101561190c5750610320919050565b605582101561191e57506103e8919050565b605a8210156119305750610514919050565b50610708919050565b611941611bbd565b611949611881565b1561196757604051632e13674560e01b815260040160405180910390fd5b604051636ca7f41960e11b81523360048201525f907f00000000000000000000000000000000000000000000000000000000000000006001600160a01b03169063d94fe83290602401602060405180830381865afa1580156119cb573d5f5f3e3d5ffd5b505050506040513d601f19601f820116820180604052508101906119ef91906123ce565b5f81815260026020526040902080549192509060ff161580611a1757508054610100900460ff165b15611a355760405163148fe22160e11b815260040160405180910390fd5b60028101546004820154600580545f90611a5090849061242f565b909155505060048054600191905f90611a7090849063ffffffff16612474565b825463ffffffff91821661010093840a9081029202191617909155835461ff001916178355505f60028301819055600483015560405183907f471e762a6918859f3f4517623abcb0ab7c1fb79baae8f2c31ecdf0d1dea69e7490611ad79084815260200190565b60405180910390a2611b136001600160a01b037f0000000000000000000000000000000000000000000000000000000000000000163383612184565b505050611b1f60015f55565b565b5f7f00000000000000000000000000000000000000000000000000000000000000006001600160a01b03166307a2d13a611b5a84610bd9565b6040518263ffffffff1660e01b8152600401611b7891815260200190565b602060405180830381865afa158015611b93573d5f5f3e3d5ffd5b505050506040513d601f19601f82011682018060405250810190611bb791906123ce565b92915050565b60025f5403611bdf57604051633ee5aeb560e01b815260040160405180910390fd5b60025f55565b6040516001600160a01b038481166024830152838116604483015260648201839052610a219186918216906323b872dd906084015b604051602081830303815290604052915060e01b6020820180516001600160e01b038381831617835250505050612208565b611c54611881565b15611c7257604051632e13674560e01b815260040160405180910390fd5b60035463ffffffff7f00000000000000000000000000000000000000000000000000000000000000001611611cba576040516327a01e0760e21b815260040160405180910390fd5b7f0000000000000000000000000000000000000000000000000000000000000000851080611d0757507f000000000000000000000000000000000000000000000000000000000000000085115b15611d25576040516321a1ce6960e01b815260040160405180910390fd5b61138861ffff83161115611d4c576040516353ac264f60e11b815260040160405180910390fd5b604051636ca7f41960e11b81523360048201525f907f00000000000000000000000000000000000000000000000000000000000000006001600160a01b03169063d94fe83290602401602060405180830381865afa158015611db0573d5f5f3e3d5ffd5b505050506040513d601f19601f82011682018060405250810190611dd491906123ce565b905080611df4576040516364a85fc960e11b815260040160405180910390fd5b604051637dd1df1b60e11b8152600481018290527f00000000000000000000000000000000000000000000000000000000000000006001600160a01b03169063fba3be3690602401602060405180830381865afa158015611e57573d5f5f3e3d5ffd5b505050506040513d601f19601f82011682018060405250810190611e7b9190612455565b611e985760405163714e546160e11b815260040160405180910390fd5b5f818152600260205260409020805460ff1615611ec757604051621d934160e11b815260040160405180910390fd5b5f611ed1866120ae565b90506012811080611ee25750606481115b15611f0057604051631694e56960e11b815260040160405180910390fd5b5f611f0a82610acb565b90505f611f188983896121ba565b8454600180870180546001600160a01b0319166001600160a01b038b1617905571ffffffffffffffff000000000000000000ff19909116600160501b6001600160401b038c1602171765ffffffff000019166201000061ffff8a81169190910265ffff0000000019169190911764010000000091851691909102178555600285018a905560048501819055600654909150676765c793fa10079d601b1b90611fc19083906123f9565b611fcb9190612410565b600585015560038054600181810183555f9283527fc2575a0e9e593c00f959f8c92f12db2869c3395a3b0502d05e2516446f71f85b909101879055600480549192909161201f90849063ffffffff166124ab565b92506101000a81548163ffffffff021916908363ffffffff1602179055508060055f82825461204e9190612442565b9091555050604080518a81526001600160401b038a16602082015261ffff8416818301529051339187917fa31c5b6fc07d78f27835dd2fc5ce59c3db0a82d6677db9cd279d9169c62136ef9181900360600190a350505050505050505050565b5f806120be6301e187e042612410565b6120ca906107b2612442565b905080836001600160401b0316106120e457505f92915050565b610ac46001600160401b0384168261242f565b5f8160050154676765c793fa10079d601b1b836004015460065461211b91906123f9565b6121259190612410565b61212f919061242f565b905080156121505780826003015f82825461214a9190612442565b90915550505b676765c793fa10079d601b1b826004015460065461216e91906123f9565b6121789190612410565b82600501819055505050565b6040516001600160a01b038381166024830152604482018390526121b591859182169063a9059cbb90606401611c1a565b505050565b5f6127106121cc61ffff85168261242f565b6121d691906123f9565b6121e661ffff841661271061242f565b6121f461ffff8616876123f9565b6121fe91906123f9565b610c639190612410565b5f5f60205f8451602086015f885af180612227576040513d5f823e3d81fd5b50505f513d9150811561223e57806001141561224b565b6001600160a01b0384163b155b15610a2157604051635274afe760e01b81526001600160a01b038516600482015260240160405180910390fd5b602081525f82518060208401528060208501604085015e5f604082850101526040601f19601f83011684010191505092915050565b602080825282518282018190525f918401906040840190835b818110156122e45783518352602093840193909201916001016122c6565b509095945050505050565b6001600160a01b038116811461119c575f5ffd5b5f60208284031215612313575f5ffd5b8135610ac4816122ef565b5f5f5f5f60808587031215612331575f5ffd5b8435935060208501356001600160401b038116811461234e575f5ffd5b9250604085013561ffff81168114612364575f5ffd5b91506060850135612374816122ef565b939692955090935050565b5f6020828403121561238f575f5ffd5b5035919050565b600181811c908216806123aa57607f821691505b6020821081036123c857634e487b7160e01b5f52602260045260245ffd5b50919050565b5f602082840312156123de575f5ffd5b5051919050565b634e487b7160e01b5f52601160045260245ffd5b8082028115828204841417611bb757611bb76123e5565b5f8261242a57634e487b7160e01b5f52601260045260245ffd5b500490565b81810381811115611bb757611bb76123e5565b80820180821115611bb757611bb76123e5565b5f60208284031215612465575f5ffd5b81518015158114610ac4575f5ffd5b63ffffffff8281168282160390811115611bb757611bb76123e5565b5f602082840312156124a0575f5ffd5b8151610ac4816122ef565b63ffffffff8181168382160190811115611bb757611bb76123e556fea2646970667358221220297392119e43fac93c4870f79eeb2116e1864ce3b437093feea152cdb0f2276564736f6c634300081c0033a264697066735822122080a124f741473390923233dcebd94633d6ba307ee8de2b033e3f9836357f411264736f6c634300081c003300000000000000000000000022d645a97a056e673b290c1e537d18423ffa4d20000000000000000000000000af204776c7245bf4147c2612bf6e5972ee483701000000000000000000000000e91d153e0b41518a2ce8dd3d7944fa863463a97d",
        "nonce": "0x394",
        "chainId": "0x64"
      },
      "additionalContracts": [],
      "isFixedGasLimit": false
    },
    {
      "hash": "0x725cc395554b80c5bf54eac31975dc5e23a61a01fd8bb4cb0b3fd4f79abd9af7",
      "transactionType": "CALL",
      "contractName": "TontineFactory",
      "contractAddress": "0xb525b70b256f355331d687bef70f9b97104b2784",
      "function": "createPool((string,uint64,uint256,uint256,uint32,uint16,address))",
      "arguments": [
        "(Demo Cohort, 1784048625, 1000000000000000000, 10000000000000000000000, 500, 200, 0x6636A1CCBdf54485067304C1a590DE016DeaD9F0)"
      ],
      "transaction": {
        "from": "0x6636a1ccbdf54485067304c1a590de016dead9f0",
        "to": "0xb525b70b256f355331d687bef70f9b97104b2784",
        "gas": "0x2bc64a",
        "value": "0x0",
        "input": "0xa12911aa000000000000000000000000000000000000000000000000000000000000002000000000000000000000000000000000000000000000000000000000000000e0000000000000000000000000000000000000000000000000000000006a566bf10000000000000000000000000000000000000000000000000de0b6b3a764000000000000000000000000000000000000000000000000021e19e0c9bab240000000000000000000000000000000000000000000000000000000000000000001f400000000000000000000000000000000000000000000000000000000000000c80000000000000000000000006636a1ccbdf54485067304c1a590de016dead9f0000000000000000000000000000000000000000000000000000000000000000b44656d6f20436f686f7274000000000000000000000000000000000000000000",
        "nonce": "0x395",
        "chainId": "0x64"
      },
      "additionalContracts": [
        {
          "transactionType": "CREATE",
          "contractName": "TontinePool",
          "address": "0x9f3bea11734570a8260cb560f0cdef11ac8258f5",
          "initCode": "0x6101a0604052348015610010575f5ffd5b50604051612bc8380380612bc883398101604081905261002f91610368565b60015f8190556001600160a01b0380861660805284811660a052831660c052815161005a90826104e8565b5060208101516001600160401b031660e052604081015161010052606081015161012052608081015163ffffffff166101405260a081015161ffff166101605260c08101516001600160a01b03908116610180526100bc908316845f196100c5565b505050506105a2565b604080516001600160a01b038416602482015260448082018490528251808303909101815260649091019091526020810180516001600160e01b0390811663095ea7b360e01b1790915261011d908590839061018916565b61018357604080516001600160a01b03851660248201525f6044808301919091528251808303909101815260649091019091526020810180516001600160e01b0390811663095ea7b360e01b179091526101799186916101d216565b61018384826101d2565b50505050565b5f5f5f5f60205f8651602088015f8a5af192503d91505f5190508280156101c8575081156101ba57806001146101c8565b5f866001600160a01b03163b115b9695505050505050565b5f5f60205f8451602086015f885af1806101f1576040513d5f823e3d81fd5b50505f513d91508115610208578060011415610215565b6001600160a01b0384163b155b1561018357604051635274afe760e01b81526001600160a01b038516600482015260240160405180910390fd5b6001600160a01b0381168114610256575f5ffd5b50565b634e487b7160e01b5f52604160045260245ffd5b60405160e081016001600160401b038111828210171561028f5761028f610259565b60405290565b5f82601f8301126102a4575f5ffd5b81516001600160401b038111156102bd576102bd610259565b604051601f8201601f19908116603f011681016001600160401b03811182821017156102eb576102eb610259565b604052818152838201602001851015610302575f5ffd5b8160208501602083015e5f918101602001919091529392505050565b80516001600160401b0381168114610334575f5ffd5b919050565b805163ffffffff81168114610334575f5ffd5b805161ffff81168114610334575f5ffd5b805161033481610242565b5f5f5f5f6080858703121561037b575f5ffd5b845161038681610242565b602086015190945061039781610242565b60408601519093506103a881610242565b60608601519092506001600160401b038111156103c3575f5ffd5b850160e081880312156103d4575f5ffd5b6103dc61026d565b81516001600160401b038111156103f1575f5ffd5b6103fd89828501610295565b82525061040c6020830161031e565b6020820152604082810151908201526060808301519082015261043160808301610339565b608082015261044260a0830161034c565b60a082015261045360c0830161035d565b60c082015294979396509194505050565b600181811c9082168061047857607f821691505b60208210810361049657634e487b7160e01b5f52602260045260245ffd5b50919050565b601f8211156104e357805f5260205f20601f840160051c810160208510156104c15750805b601f840160051c820191505b818110156104e0575f81556001016104cd565b50505b505050565b81516001600160401b0381111561050157610501610259565b6105158161050f8454610464565b8461049c565b6020601f821160018114610547575f83156105305750848201515b5f19600385901b1c1916600184901b1784556104e0565b5f84815260208120601f198516915b828110156105765787850151825560209485019460019092019101610556565b508482101561059357868401515f19600387901b60f8161c191681555b50505050600190811b01905550565b60805160a05160c05160e05161010051610120516101405161016051610180516124fd6106cb5f395f8181610483015261109601525f81816103ee0152610e0f01525f81816105cc0152611c7c01525f81816104bd0152611ce501525f818161057a0152611cbc01525f8181610239015281816114e8015261188b01525f818161062901526117b001525f8181610444015281816107440152818161095c0152818161099e015281816110740152818161112b01528181611165015281816111b601528181611763015281816117f601528181611aec0152611b2401525f81816104f70152818161083601528181610cdf01528181610e6201528181610f2b015281816113720152818161143f0152818161197e01528181611d630152611e0a01526124fd5ff3fe608060405234801561000f575f5ffd5b50600436106101fd575f3560e01c80636d9ec54011610114578063a1b60c8c116100a9578063ca48723111610079578063ca487231146105ee578063e9fad8ee14610601578063fcd84b4714610609578063fd49fc4f1461061c578063ff5bc34b14610624575f5ffd5b8063a1b60c8c14610575578063a1d4ddd21461059c578063a4e2d634146105af578063bf4386a0146105c7575f5ffd5b80638de206fd116100e45780638de206fd146105215780639273bbb61461053457806396c82e57146105475780639f0c30dc14610550575f5ffd5b80636d9ec540146104b85780637a849435146104df5780637dc0d1d0146104f25780637fe4ef4714610519575f5ffd5b80631f718bf411610195578063427e401e11610165578063427e401e1461042357806347e4805b146104365780635b2eeca41461043f57806361d027b31461047e5780636c7f1542146104a5575f5ffd5b80631f718bf4146102be5780631fd3c85b146103c3578063395e2c31146103d6578063415307cc146103e9575f5ffd5b806317d33acd116101d057806317d33acd146102855780631bdbf2201461028e5780631c31f710146102965780631cae87e1146102ab575f5ffd5b806306fdde0314610201578063099f24741461021f5780630d6680871461023457806311aee38014610273575b5f5ffd5b61020961064b565b6040516102169190612278565b60405180910390f35b6102276106d7565b60405161021691906122ad565b61025b7f000000000000000000000000000000000000000000000000000000000000000081565b6040516001600160401b039091168152602001610216565b6003545b604051908152602001610216565b61027760065481565b61027761072d565b6102a96102a4366004612303565b61081f565b005b6102a96102b936600461231e565b610947565b6103516102cc36600461237f565b600260208190525f918252604090912080546001820154928201546003830154600484015460059094015460ff8085169661010086049091169562010000860461ffff90811696640100000000810490911695600160301b820463ffffffff1695600160501b9092046001600160401b0316946001600160a01b03909416939092908b565b604080519b15158c5299151560208c015261ffff988916998b019990995296909516606089015263ffffffff90931660808801526001600160401b0390911660a08701526001600160a01b031660c086015260e085015261010084015261012083015261014082015261016001610216565b6102776103d136600461237f565b610a27565b6102776103e436600461237f565b610a46565b6104107f000000000000000000000000000000000000000000000000000000000000000081565b60405161ffff9091168152602001610216565b61041061043136600461237f565b610acb565b61041061138881565b6104667f000000000000000000000000000000000000000000000000000000000000000081565b6040516001600160a01b039091168152602001610216565b6104667f000000000000000000000000000000000000000000000000000000000000000081565b6102776104b336600461237f565b610bd9565b6102777f000000000000000000000000000000000000000000000000000000000000000081565b6102a96104ed36600461237f565b610c6b565b6104667f000000000000000000000000000000000000000000000000000000000000000081565b61027761119f565b6102a961052f36600461237f565b6111ed565b6102a961054236600461237f565b61132e565b61027760055481565b6004546105609063ffffffff1681565b60405163ffffffff9091168152602001610216565b6102777f000000000000000000000000000000000000000000000000000000000000000081565b6102a96105aa36600461231e565b61179b565b6105b7611881565b6040519015158152602001610216565b6105607f000000000000000000000000000000000000000000000000000000000000000081565b6104106105fc36600461237f565b6118b1565b6102a9611939565b61027761061736600461237f565b611b21565b610560600c81565b6104667f000000000000000000000000000000000000000000000000000000000000000081565b6001805461065890612396565b80601f016020809104026020016040519081016040528092919081815260200182805461068490612396565b80156106cf5780601f106106a6576101008083540402835291602001916106cf565b820191905f5260205f20905b8154815290600101906020018083116106b257829003601f168201915b505050505081565b6060600380548060200260200160405190810160405280929190818152602001828054801561072357602002820191905f5260205f20905b81548152602001906001019080831161070f575b5050505050905090565b6040516370a0823160e01b81523060048201525f907f00000000000000000000000000000000000000000000000000000000000000006001600160a01b0316906307a2d13a9082906370a0823190602401602060405180830381865afa158015610799573d5f5f3e3d5ffd5b505050506040513d601f19601f820116820180604052508101906107bd91906123ce565b6040518263ffffffff1660e01b81526004016107db91815260200190565b602060405180830381865afa1580156107f6573d5f5f3e3d5ffd5b505050506040513d601f19601f8201168201806040525081019061081a91906123ce565b905090565b604051636ca7f41960e11b81523360048201525f907f00000000000000000000000000000000000000000000000000000000000000006001600160a01b03169063d94fe83290602401602060405180830381865afa158015610883573d5f5f3e3d5ffd5b505050506040513d601f19601f820116820180604052508101906108a791906123ce565b5f81815260026020526040902080549192509060ff1615806108cf57508054610100900460ff165b156108ed5760405163148fe22160e11b815260040160405180910390fd5b6001810180546001600160a01b0319166001600160a01b03851690811790915560405190815282907fd78a4e0d983d806f6088f139d426f4cd886ba85ff8ba54c7b7c55714b228937f9060200160405180910390a2505050565b61094f611bbd565b6109846001600160a01b037f000000000000000000000000000000000000000000000000000000000000000016333087611be5565b6040516303d1689d60e11b815260048101859052610a18907f00000000000000000000000000000000000000000000000000000000000000006001600160a01b0316906307a2d13a90602401602060405180830381865afa1580156109eb573d5f5f3e3d5ffd5b505050506040513d601f19601f82011682018060405250810190610a0f91906123ce565b85858585611c4c565b610a2160015f55565b50505050565b60038181548110610a36575f80fd5b5f91825260209091200154905081565b5f818152600260205260408120805460ff161580610a6a57508054610100900460ff165b15610a7757505f92915050565b610a84612710600c6123f9565b8154610aa3906105fc90600160501b90046001600160401b03166120ae565b61ffff16610ab085610bd9565b610aba91906123f9565b610ac49190612410565b9392505050565b5f6019821015610add57506008919050565b601e821015610aee5750600a919050565b6023821015610aff5750600c919050565b6028821015610b1057506010919050565b602d821015610b2157506016919050565b6032821015610b3257506021919050565b6037821015610b4357506032919050565b603c821015610b545750604e919050565b6041821015610b6557506078919050565b6046821015610b76575060b4919050565b604b821015610b885750610118919050565b6050821015610b9a57506101c2919050565b6055821015610bac57506102ee919050565b605a821015610bbe5750610514919050565b605f821015610bd05750610898919050565b50610dac919050565b5f818152600260205260408120805460ff161580610bfd57508054610100900460ff165b15610c0a57505f92915050565b5f8160050154676765c793fa10079d601b1b8360040154600654610c2e91906123f9565b610c389190612410565b610c42919061242f565b90508082600301548360020154610c599190612442565b610c639190612442565b949350505050565b610c73611bbd565b5f818152600260205260409020805460ff16610ca25760405163148fe22160e11b815260040160405180910390fd5b8054610100900460ff1615610cc95760405162560ff960e81b815260040160405180910390fd5b60405163134f86e760e01b8152600481018390527f00000000000000000000000000000000000000000000000000000000000000006001600160a01b03169063134f86e790602401602060405180830381865afa158015610d2c573d5f5f3e3d5ffd5b505050506040513d601f19601f82011682018060405250810190610d509190612455565b610d6d57604051633213d1a960e01b815260040160405180910390fd5b610d76816120f7565b806004015460055f828254610d8b919061242f565b909155505060048054600191905f90610dab90849063ffffffff16612474565b92506101000a81548163ffffffff021916908363ffffffff1602179055505f81600301548260020154610dde9190612442565b825461ff0019166101001783555f600284018190556003840181905560048401819055909150612710610e3561ffff7f000000000000000000000000000000000000000000000000000000000000000016846123f9565b610e3f9190612410565b604051630e28016360e01b8152600481018690529091505f906001600160a01b037f00000000000000000000000000000000000000000000000000000000000000001690630e28016390602401602060405180830381865afa158015610ea7573d5f5f3e3d5ffd5b505050506040513d601f19601f82011682018060405250810190610ecb9190612490565b90506001600160a01b038116610edf575f91505b60018401545f906001600160a01b0316610ef7611881565b610fa457610f05848661242f565b91506001600160a01b038116610f9f5760405163012a428b60e31b8152600481018890527f00000000000000000000000000000000000000000000000000000000000000006001600160a01b031690630952145890602401602060405180830381865afa158015610f78573d5f5f3e3d5ffd5b505050506040513d601f19601f82011682018060405250810190610f9c9190612490565b90505b610fe4565b6001600160a01b03811615610fe45785546127109062010000900461ffff16610fcd868861242f565b610fd791906123f9565b610fe19190612410565b91505b5f82610ff0868861242f565b610ffa919061242f565b905080156110bb576005541561104757600554611022676765c793fa10079d601b1b836123f9565b61102c9190612410565b60065f82825461103c9190612442565b909155506110bb9050565b6001600160a01b03821615611067576110608184612442565b92506110bb565b6110bb6001600160a01b037f0000000000000000000000000000000000000000000000000000000000000000167f000000000000000000000000000000000000000000000000000000000000000083612184565b877f42133b0086d8e4bd61a205986c05d712d8923683117ad4920f0890b3e747bd77878786806110eb838561242f565b6110f5919061242f565b60408051948552602085019390935291830152606082015260800160405180910390a28415611152576111526001600160a01b037f0000000000000000000000000000000000000000000000000000000000000000168587612184565b821561118c5761118c6001600160a01b037f0000000000000000000000000000000000000000000000000000000000000000168385612184565b5050505050505061119c60015f55565b50565b6040516370a0823160e01b81523060048201525f907f00000000000000000000000000000000000000000000000000000000000000006001600160a01b0316906370a08231906024016107db565b5f818152600260205260409020805460ff16158061121157508054610100900460ff165b1561122f5760405163148fe22160e11b815260040160405180910390fd5b611238816120f7565b80545f906112599061043190600160501b90046001600160401b03166120ae565b90505f61127c836002015483855f0160029054906101000a900461ffff166121ba565b9050808360040154600554611291919061242f565b61129b9190612442565b600555825465ffff00000000191664010000000061ffff84160217835560048301819055600654676765c793fa10079d601b1b906112da9083906123f9565b6112e49190612410565b60058401556040805161ffff841681526020810183905285917fa53ada50ac8cc8ff965a81cc6f7bb67de0b3976c823f50b3e6c8ae60c99c37d7910160405180910390a250505050565b611336611bbd565b61133e611881565b61135b57604051635c8e750760e01b815260040160405180910390fd5b604051636ca7f41960e11b81523360048201525f907f00000000000000000000000000000000000000000000000000000000000000006001600160a01b03169063d94fe83290602401602060405180830381865afa1580156113bf573d5f5f3e3d5ffd5b505050506040513d601f19601f820116820180604052508101906113e391906123ce565b5f81815260026020526040902080549192509060ff16158061140b57508054610100900460ff165b156114295760405163148fe22160e11b815260040160405180910390fd5b604051637dd1df1b60e11b8152600481018390527f00000000000000000000000000000000000000000000000000000000000000006001600160a01b03169063fba3be3690602401602060405180830381865afa15801561148c573d5f5f3e3d5ffd5b505050506040513d601f19601f820116820180604052508101906114b09190612455565b6114cd5760405163714e546160e11b815260040160405180910390fd5b6114d6826111ed565b5f62278d0061150e6001600160401b037f0000000000000000000000000000000000000000000000000000000000000000164261242f565b6115189190612410565b6115239060016124ab565b825490915063ffffffff600160301b9091048116908216116115585760405163d2c0cf5760e01b815260040160405180910390fd5b81545f9061157390600160301b900463ffffffff1683612474565b9050600c63ffffffff821611156115885750600c5b5f8360030154846002015461159d9190612442565b90505f6115ad612710600c6123f9565b855463ffffffff8516906115d4906105fc90600160501b90046001600160401b03166120ae565b6115e29061ffff16856123f9565b6115ec91906123f9565b6115f69190612410565b905080871115611619576040516320d0613160e21b815260040160405180910390fd5b845469ffffffff0000000000001916600160301b63ffffffff86160217855560038501545f90881115611650578560030154611652565b875b905080866003015f828254611667919061242f565b909155505f9050611678828a61242f565b905080156117145780876002015f828254611693919061242f565b9091555050600287015487545f916116bf9161ffff6401000000008204811691620100009004166121ba565b90508088600401546005546116d4919061242f565b6116de9190612442565b60055560048801819055600654676765c793fa10079d601b1b906117039083906123f9565b61170d9190612410565b6005890155505b604080518a815263ffffffff8716602082015233918a917f907ca09dd0960a1ee95a532da6a4661d2b8de11d05824d33f95e42e60dc81426910160405180910390a361178a6001600160a01b037f000000000000000000000000000000000000000000000000000000000000000016338b612184565b505050505050505061119c60015f55565b6117a3611bbd565b6117d86001600160a01b037f000000000000000000000000000000000000000000000000000000000000000016333087611be5565b604051636e553f6560e01b8152600481018590523060248201525f907f00000000000000000000000000000000000000000000000000000000000000006001600160a01b031690636e553f65906044016020604051808303815f875af1158015611844573d5f5f3e3d5ffd5b505050506040513d601f19601f8201168201806040525081019061186891906123ce565b90506118778582868686611c4c565b50610a2160015f55565b6001600160401b037f00000000000000000000000000000000000000000000000000000000000000001642101590565b5f603c8210156118c45750610190919050565b60418210156118d657506101f4919050565b60468210156118e85750610230919050565b604b8210156118fa575061028a919050565b605082101561190c5750610320919050565b605582101561191e57506103e8919050565b605a8210156119305750610514919050565b50610708919050565b611941611bbd565b611949611881565b1561196757604051632e13674560e01b815260040160405180910390fd5b604051636ca7f41960e11b81523360048201525f907f00000000000000000000000000000000000000000000000000000000000000006001600160a01b03169063d94fe83290602401602060405180830381865afa1580156119cb573d5f5f3e3d5ffd5b505050506040513d601f19601f820116820180604052508101906119ef91906123ce565b5f81815260026020526040902080549192509060ff161580611a1757508054610100900460ff165b15611a355760405163148fe22160e11b815260040160405180910390fd5b60028101546004820154600580545f90611a5090849061242f565b909155505060048054600191905f90611a7090849063ffffffff16612474565b825463ffffffff91821661010093840a9081029202191617909155835461ff001916178355505f60028301819055600483015560405183907f471e762a6918859f3f4517623abcb0ab7c1fb79baae8f2c31ecdf0d1dea69e7490611ad79084815260200190565b60405180910390a2611b136001600160a01b037f0000000000000000000000000000000000000000000000000000000000000000163383612184565b505050611b1f60015f55565b565b5f7f00000000000000000000000000000000000000000000000000000000000000006001600160a01b03166307a2d13a611b5a84610bd9565b6040518263ffffffff1660e01b8152600401611b7891815260200190565b602060405180830381865afa158015611b93573d5f5f3e3d5ffd5b505050506040513d601f19601f82011682018060405250810190611bb791906123ce565b92915050565b60025f5403611bdf57604051633ee5aeb560e01b815260040160405180910390fd5b60025f55565b6040516001600160a01b038481166024830152838116604483015260648201839052610a219186918216906323b872dd906084015b604051602081830303815290604052915060e01b6020820180516001600160e01b038381831617835250505050612208565b611c54611881565b15611c7257604051632e13674560e01b815260040160405180910390fd5b60035463ffffffff7f00000000000000000000000000000000000000000000000000000000000000001611611cba576040516327a01e0760e21b815260040160405180910390fd5b7f0000000000000000000000000000000000000000000000000000000000000000851080611d0757507f000000000000000000000000000000000000000000000000000000000000000085115b15611d25576040516321a1ce6960e01b815260040160405180910390fd5b61138861ffff83161115611d4c576040516353ac264f60e11b815260040160405180910390fd5b604051636ca7f41960e11b81523360048201525f907f00000000000000000000000000000000000000000000000000000000000000006001600160a01b03169063d94fe83290602401602060405180830381865afa158015611db0573d5f5f3e3d5ffd5b505050506040513d601f19601f82011682018060405250810190611dd491906123ce565b905080611df4576040516364a85fc960e11b815260040160405180910390fd5b604051637dd1df1b60e11b8152600481018290527f00000000000000000000000000000000000000000000000000000000000000006001600160a01b03169063fba3be3690602401602060405180830381865afa158015611e57573d5f5f3e3d5ffd5b505050506040513d601f19601f82011682018060405250810190611e7b9190612455565b611e985760405163714e546160e11b815260040160405180910390fd5b5f818152600260205260409020805460ff1615611ec757604051621d934160e11b815260040160405180910390fd5b5f611ed1866120ae565b90506012811080611ee25750606481115b15611f0057604051631694e56960e11b815260040160405180910390fd5b5f611f0a82610acb565b90505f611f188983896121ba565b8454600180870180546001600160a01b0319166001600160a01b038b1617905571ffffffffffffffff000000000000000000ff19909116600160501b6001600160401b038c1602171765ffffffff000019166201000061ffff8a81169190910265ffff0000000019169190911764010000000091851691909102178555600285018a905560048501819055600654909150676765c793fa10079d601b1b90611fc19083906123f9565b611fcb9190612410565b600585015560038054600181810183555f9283527fc2575a0e9e593c00f959f8c92f12db2869c3395a3b0502d05e2516446f71f85b909101879055600480549192909161201f90849063ffffffff166124ab565b92506101000a81548163ffffffff021916908363ffffffff1602179055508060055f82825461204e9190612442565b9091555050604080518a81526001600160401b038a16602082015261ffff8416818301529051339187917fa31c5b6fc07d78f27835dd2fc5ce59c3db0a82d6677db9cd279d9169c62136ef9181900360600190a350505050505050505050565b5f806120be6301e187e042612410565b6120ca906107b2612442565b905080836001600160401b0316106120e457505f92915050565b610ac46001600160401b0384168261242f565b5f8160050154676765c793fa10079d601b1b836004015460065461211b91906123f9565b6121259190612410565b61212f919061242f565b905080156121505780826003015f82825461214a9190612442565b90915550505b676765c793fa10079d601b1b826004015460065461216e91906123f9565b6121789190612410565b82600501819055505050565b6040516001600160a01b038381166024830152604482018390526121b591859182169063a9059cbb90606401611c1a565b505050565b5f6127106121cc61ffff85168261242f565b6121d691906123f9565b6121e661ffff841661271061242f565b6121f461ffff8616876123f9565b6121fe91906123f9565b610c639190612410565b5f5f60205f8451602086015f885af180612227576040513d5f823e3d81fd5b50505f513d9150811561223e57806001141561224b565b6001600160a01b0384163b155b15610a2157604051635274afe760e01b81526001600160a01b038516600482015260240160405180910390fd5b602081525f82518060208401528060208501604085015e5f604082850101526040601f19601f83011684010191505092915050565b602080825282518282018190525f918401906040840190835b818110156122e45783518352602093840193909201916001016122c6565b509095945050505050565b6001600160a01b038116811461119c575f5ffd5b5f60208284031215612313575f5ffd5b8135610ac4816122ef565b5f5f5f5f60808587031215612331575f5ffd5b8435935060208501356001600160401b038116811461234e575f5ffd5b9250604085013561ffff81168114612364575f5ffd5b91506060850135612374816122ef565b939692955090935050565b5f6020828403121561238f575f5ffd5b5035919050565b600181811c908216806123aa57607f821691505b6020821081036123c857634e487b7160e01b5f52602260045260245ffd5b50919050565b5f602082840312156123de575f5ffd5b5051919050565b634e487b7160e01b5f52601160045260245ffd5b8082028115828204841417611bb757611bb76123e5565b5f8261242a57634e487b7160e01b5f52601260045260245ffd5b500490565b81810381811115611bb757611bb76123e5565b80820180821115611bb757611bb76123e5565b5f60208284031215612465575f5ffd5b81518015158114610ac4575f5ffd5b63ffffffff8281168282160390811115611bb757611bb76123e5565b5f602082840312156124a0575f5ffd5b8151610ac4816122ef565b63ffffffff8181168382160190811115611bb757611bb76123e556fea2646970667358221220297392119e43fac93c4870f79eeb2116e1864ce3b437093feea152cdb0f2276564736f6c634300081c003300000000000000000000000022d645a97a056e673b290c1e537d18423ffa4d20000000000000000000000000af204776c7245bf4147c2612bf6e5972ee483701000000000000000000000000e91d153e0b41518a2ce8dd3d7944fa863463a97d000000000000000000000000000000000000000000000000000000000000008000000000000000000000000000000000000000000000000000000000000000e0000000000000000000000000000000000000000000000000000000006a566bf10000000000000000000000000000000000000000000000000de0b6b3a764000000000000000000000000000000000000000000000000021e19e0c9bab240000000000000000000000000000000000000000000000000000000000000000001f400000000000000000000000000000000000000000000000000000000000000c80000000000000000000000006636a1ccbdf54485067304c1a590de016dead9f0000000000000000000000000000000000000000000000000000000000000000b44656d6f20436f686f7274000000000000000000000000000000000000000000"
        }
      ],
      "isFixedGasLimit": false
    },
    {
      "hash": "0xbf44e5d532836b7e0b090baf9f4ef9a386a5b821db3014e8e755e20b19f9ef1a",
      "transactionType": "CALL",
      "contractName": "DKIMRegistry",
      "contractAddress": "0xa40c38e3b7c8fc30be98f0de17371497cca70e35",
      "function": "setKey(bytes32,bytes32,uint64,uint64)",
      "arguments": [
        "0xde997f4d4968f67729cc671fb1c42560f22cdc63e46dbd5f0f0eb87bfe73d6e2",
        "0x5dac113de9f874cbf7971600319775d0e4aa73a17635e5e5e43b2415989a7da8",
        "0",
        "0"
      ],
      "transaction": {
        "from": "0x6636a1ccbdf54485067304c1a590de016dead9f0",
        "to": "0xa40c38e3b7c8fc30be98f0de17371497cca70e35",
        "gas": "0x10bd9",
        "value": "0x0",
        "input": "0xf259fda9de997f4d4968f67729cc671fb1c42560f22cdc63e46dbd5f0f0eb87bfe73d6e25dac113de9f874cbf7971600319775d0e4aa73a17635e5e5e43b2415989a7da800000000000000000000000000000000000000000000000000000000000000000000000000000000000000000000000000000000000000000000000000000000",
        "nonce": "0x396",
        "chainId": "0x64"
      },
      "additionalContracts": [],
      "isFixedGasLimit": false
    },
    {
      "hash": "0x6e2d397a344b79b22ee2c4b28d0b60b97defbbcd13440712544a2b7d49d425e7",
      "transactionType": "CALL",
      "contractName": "LifeOracle",
      "contractAddress": "0x22d645a97a056e673b290c1e537d18423ffa4d20",
      "function": "setDomainRoles(bytes32,uint8)",
      "arguments": [
        "0xde997f4d4968f67729cc671fb1c42560f22cdc63e46dbd5f0f0eb87bfe73d6e2",
        "3"
      ],
      "transaction": {
        "from": "0x6636a1ccbdf54485067304c1a590de016dead9f0",
        "to": "0x22d645a97a056e673b290c1e537d18423ffa4d20",
        "gas": "0x102b5",
        "value": "0x0",
        "input": "0x799f23b5de997f4d4968f67729cc671fb1c42560f22cdc63e46dbd5f0f0eb87bfe73d6e20000000000000000000000000000000000000000000000000000000000000003",
        "nonce": "0x397",
        "chainId": "0x64"
      },
      "additionalContracts": [],
      "isFixedGasLimit": false
    },
    {
      "hash": "0x22785b7193f73410aedf200dfbb7cd288f502f15b6f791b9d25364b66a76a269",
      "transactionType": "CALL",
      "contractName": "DKIMRegistry",
      "contractAddress": "0xa40c38e3b7c8fc30be98f0de17371497cca70e35",
      "function": "setKey(bytes32,bytes32,uint64,uint64)",
      "arguments": [
        "0xfc99c0d3f73deddc9f7f01f762bc355f879936c0edaf1d2c01c8c92144f94ce9",
        "0xd2c22aa2b0b0833b6f158b6c602670dccdaa7b697a3f7dd8da4fa00634657fcc",
        "0",
        "0"
      ],
      "transaction": {
        "from": "0x6636a1ccbdf54485067304c1a590de016dead9f0",
        "to": "0xa40c38e3b7c8fc30be98f0de17371497cca70e35",
        "gas": "0x10bea",
        "value": "0x0",
        "input": "0xf259fda9fc99c0d3f73deddc9f7f01f762bc355f879936c0edaf1d2c01c8c92144f94ce9d2c22aa2b0b0833b6f158b6c602670dccdaa7b697a3f7dd8da4fa00634657fcc00000000000000000000000000000000000000000000000000000000000000000000000000000000000000000000000000000000000000000000000000000000",
        "nonce": "0x398",
        "chainId": "0x64"
      },
      "additionalContracts": [],
      "isFixedGasLimit": false
    },
    {
      "hash": "0xa143f6a7c6721641b155dc93f89f8a28bfce70831d26c1750ba944ce2e0a0bfa",
      "transactionType": "CALL",
      "contractName": "LifeOracle",
      "contractAddress": "0x22d645a97a056e673b290c1e537d18423ffa4d20",
      "function": "setDomainRoles(bytes32,uint8)",
      "arguments": [
        "0xfc99c0d3f73deddc9f7f01f762bc355f879936c0edaf1d2c01c8c92144f94ce9",
        "3"
      ],
      "transaction": {
        "from": "0x6636a1ccbdf54485067304c1a590de016dead9f0",
        "to": "0x22d645a97a056e673b290c1e537d18423ffa4d20",
        "gas": "0x102b5",
        "value": "0x0",
        "input": "0x799f23b5fc99c0d3f73deddc9f7f01f762bc355f879936c0edaf1d2c01c8c92144f94ce90000000000000000000000000000000000000000000000000000000000000003",
        "nonce": "0x399",
        "chainId": "0x64"
      },
      "additionalContracts": [],
      "isFixedGasLimit": false
    },
    {
      "hash": "0x64e18d70dd21ba711f84985f3950c66f305a2eff532098c808093c789ec3cb5d",
      "transactionType": "CALL",
      "contractName": "DKIMRegistry",
      "contractAddress": "0xa40c38e3b7c8fc30be98f0de17371497cca70e35",
      "function": "setKey(bytes32,bytes32,uint64,uint64)",
      "arguments": [
        "0x5a0ef538cd2e93f144d86322227a06968a41958424e792b43aa8f095713a0c71",
        "0xba853069cc96aae06a28787d71714244d78dd395785a5ce963870de070e714cf",
        "0",
        "0"
      ],
      "transaction": {
        "from": "0x6636a1ccbdf54485067304c1a590de016dead9f0",
        "to": "0xa40c38e3b7c8fc30be98f0de17371497cca70e35",
        "gas": "0x10bea",
        "value": "0x0",
        "input": "0xf259fda95a0ef538cd2e93f144d86322227a06968a41958424e792b43aa8f095713a0c71ba853069cc96aae06a28787d71714244d78dd395785a5ce963870de070e714cf00000000000000000000000000000000000000000000000000000000000000000000000000000000000000000000000000000000000000000000000000000000",
        "nonce": "0x39a",
        "chainId": "0x64"
      },
      "additionalContracts": [],
      "isFixedGasLimit": false
    },
    {
      "hash": "0x413ec0868db5eee3a12541f64e2fb6d1379a76ea50edeff5ab04d8e139c853c8",
      "transactionType": "CALL",
      "contractName": "LifeOracle",
      "contractAddress": "0x22d645a97a056e673b290c1e537d18423ffa4d20",
      "function": "setDomainRoles(bytes32,uint8)",
      "arguments": [
        "0x5a0ef538cd2e93f144d86322227a06968a41958424e792b43aa8f095713a0c71",
        "3"
      ],
      "transaction": {
        "from": "0x6636a1ccbdf54485067304c1a590de016dead9f0",
        "to": "0x22d645a97a056e673b290c1e537d18423ffa4d20",
        "gas": "0x102b5",
        "value": "0x0",
        "input": "0x799f23b55a0ef538cd2e93f144d86322227a06968a41958424e792b43aa8f095713a0c710000000000000000000000000000000000000000000000000000000000000003",
        "nonce": "0x39b",
        "chainId": "0x64"
      },
      "additionalContracts": [],
      "isFixedGasLimit": false
    },
    {
      "hash": "0xa22ca1b3922cea82ccfabd01407e12d1f2e2e937816f3b4c8b46b60cc3afa6ac",
      "transactionType": "CALL",
      "contractName": "DKIMRegistry",
      "contractAddress": "0xa40c38e3b7c8fc30be98f0de17371497cca70e35",
      "function": "setKey(bytes32,bytes32,uint64,uint64)",
      "arguments": [
        "0xf06c2fa7f94c6000cb014d20043e5460c117d91256c0e1c8bb8728f2a127fea0",
        "0x28e21cd094c669ff7b7c5f64f59fde1e1ced965edaf22377a504523fb3d292db",
        "0",
        "0"
      ],
      "transaction": {
        "from": "0x6636a1ccbdf54485067304c1a590de016dead9f0",
        "to": "0xa40c38e3b7c8fc30be98f0de17371497cca70e35",
        "gas": "0x10bd9",
        "value": "0x0",
        "input": "0xf259fda9f06c2fa7f94c6000cb014d20043e5460c117d91256c0e1c8bb8728f2a127fea028e21cd094c669ff7b7c5f64f59fde1e1ced965edaf22377a504523fb3d292db00000000000000000000000000000000000000000000000000000000000000000000000000000000000000000000000000000000000000000000000000000000",
        "nonce": "0x39c",
        "chainId": "0x64"
      },
      "additionalContracts": [],
      "isFixedGasLimit": false
    },
    {
      "hash": "0xd2481b1813c8969ca7ea800ee1a1ed5a1f5c3b56829d1f2283e0afb1990f876d",
      "transactionType": "CALL",
      "contractName": "LifeOracle",
      "contractAddress": "0x22d645a97a056e673b290c1e537d18423ffa4d20",
      "function": "setDomainRoles(bytes32,uint8)",
      "arguments": [
        "0xf06c2fa7f94c6000cb014d20043e5460c117d91256c0e1c8bb8728f2a127fea0",
        "3"
      ],
      "transaction": {
        "from": "0x6636a1ccbdf54485067304c1a590de016dead9f0",
        "to": "0x22d645a97a056e673b290c1e537d18423ffa4d20",
        "gas": "0x111dd",
        "value": "0x0",
        "input": "0x799f23b5f06c2fa7f94c6000cb014d20043e5460c117d91256c0e1c8bb8728f2a127fea00000000000000000000000000000000000000000000000000000000000000003",
        "nonce": "0x39d",
        "chainId": "0x64"
      },
      "additionalContracts": [],
      "isFixedGasLimit": false
    },
    {
      "hash": "0xa8d74a06f91224c3b5ddf68b43701c91e6da832049bc0eca5c82dae56fe75885",
      "transactionType": "CALL",
      "contractName": "DKIMRegistry",
      "contractAddress": "0xa40c38e3b7c8fc30be98f0de17371497cca70e35",
      "function": "setKey(bytes32,bytes32,uint64,uint64)",
      "arguments": [
        "0xdd7f9ad016ef7107e9fc1cd2a48923f637038b2cc82d5730c753eb477a35e8bf",
        "0xc12913004969ef5abacbc05e598d85301784f2382bfd5ab889ed3366ab63523e",
        "0",
        "0"
      ],
      "transaction": {
        "from": "0x6636a1ccbdf54485067304c1a590de016dead9f0",
        "to": "0xa40c38e3b7c8fc30be98f0de17371497cca70e35",
        "gas": "0x10bd9",
        "value": "0x0",
        "input": "0xf259fda9dd7f9ad016ef7107e9fc1cd2a48923f637038b2cc82d5730c753eb477a35e8bfc12913004969ef5abacbc05e598d85301784f2382bfd5ab889ed3366ab63523e00000000000000000000000000000000000000000000000000000000000000000000000000000000000000000000000000000000000000000000000000000000",
        "nonce": "0x39e",
        "chainId": "0x64"
      },
      "additionalContracts": [],
      "isFixedGasLimit": false
    },
    {
      "hash": "0xac60e90be4d9c005bc7584b7437a23efb12a224c975e609a4dd9c72b1b778cbd",
      "transactionType": "CALL",
      "contractName": "LifeOracle",
      "contractAddress": "0x22d645a97a056e673b290c1e537d18423ffa4d20",
      "function": "setDomainRoles(bytes32,uint8)",
      "arguments": [
        "0xdd7f9ad016ef7107e9fc1cd2a48923f637038b2cc82d5730c753eb477a35e8bf",
        "4"
      ],
      "transaction": {
        "from": "0x6636a1ccbdf54485067304c1a590de016dead9f0",
        "to": "0x22d645a97a056e673b290c1e537d18423ffa4d20",
        "gas": "0x102b5",
        "value": "0x0",
        "input": "0x799f23b5dd7f9ad016ef7107e9fc1cd2a48923f637038b2cc82d5730c753eb477a35e8bf0000000000000000000000000000000000000000000000000000000000000004",
        "nonce": "0x39f",
        "chainId": "0x64"
      },
      "additionalContracts": [],
      "isFixedGasLimit": false
    },
    {
      "hash": "0x98735674ce147da2d7577d117f1461042da36ec49f8662e578cadc7a42843376",
      "transactionType": "CALL",
      "contractName": "DKIMRegistry",
      "contractAddress": "0xa40c38e3b7c8fc30be98f0de17371497cca70e35",
      "function": "setKey(bytes32,bytes32,uint64,uint64)",
      "arguments": [
        "0xfbedd74d5e89f2e85777bb31e1af59d01cefd9138edb6ebfa1b6e124aae3bbd1",
        "0xc267bdfbe31faace1ba653135af04b6de1c1b10ac77ad797d3dc165b60590dd2",
        "0",
        "0"
      ],
      "transaction": {
        "from": "0x6636a1ccbdf54485067304c1a590de016dead9f0",
        "to": "0xa40c38e3b7c8fc30be98f0de17371497cca70e35",
        "gas": "0x10bea",
        "value": "0x0",
        "input": "0xf259fda9fbedd74d5e89f2e85777bb31e1af59d01cefd9138edb6ebfa1b6e124aae3bbd1c267bdfbe31faace1ba653135af04b6de1c1b10ac77ad797d3dc165b60590dd200000000000000000000000000000000000000000000000000000000000000000000000000000000000000000000000000000000000000000000000000000000",
        "nonce": "0x3a0",
        "chainId": "0x64"
      },
      "additionalContracts": [],
      "isFixedGasLimit": false
    },
    {
      "hash": "0x628a5a405c220649f3663d44208d118521e270dc974a4f285e23a111bad05775",
      "transactionType": "CALL",
      "contractName": "LifeOracle",
      "contractAddress": "0x22d645a97a056e673b290c1e537d18423ffa4d20",
      "function": "setDomainRoles(bytes32,uint8)",
      "arguments": [
        "0xfbedd74d5e89f2e85777bb31e1af59d01cefd9138edb6ebfa1b6e124aae3bbd1",
        "4"
      ],
      "transaction": {
        "from": "0x6636a1ccbdf54485067304c1a590de016dead9f0",
        "to": "0x22d645a97a056e673b290c1e537d18423ffa4d20",
        "gas": "0x102b5",
        "value": "0x0",
        "input": "0x799f23b5fbedd74d5e89f2e85777bb31e1af59d01cefd9138edb6ebfa1b6e124aae3bbd10000000000000000000000000000000000000000000000000000000000000004",
        "nonce": "0x3a1",
        "chainId": "0x64"
      },
      "additionalContracts": [],
      "isFixedGasLimit": false
    },
    {
      "hash": "0x7fc477d843819ad94ce421d187be67b4ec11aa84d256edb65990827550bd359e",
      "transactionType": "CALL",
      "contractName": "DKIMRegistry",
      "contractAddress": "0xa40c38e3b7c8fc30be98f0de17371497cca70e35",
      "function": "setKey(bytes32,bytes32,uint64,uint64)",
      "arguments": [
        "0xfc00d2d47b594baaf884881f6614d9c9ba4a9a8a2498b6c2480efa6865e5c4e5",
        "0x3040163df848ce0820c55d4c80c36550c6825ce6c0319bd5a4dd60d554e43319",
        "0",
        "0"
      ],
      "transaction": {
        "from": "0x6636a1ccbdf54485067304c1a590de016dead9f0",
        "to": "0xa40c38e3b7c8fc30be98f0de17371497cca70e35",
        "gas": "0x10bd9",
        "value": "0x0",
        "input": "0xf259fda9fc00d2d47b594baaf884881f6614d9c9ba4a9a8a2498b6c2480efa6865e5c4e53040163df848ce0820c55d4c80c36550c6825ce6c0319bd5a4dd60d554e4331900000000000000000000000000000000000000000000000000000000000000000000000000000000000000000000000000000000000000000000000000000000",
        "nonce": "0x3a2",
        "chainId": "0x64"
      },
      "additionalContracts": [],
      "isFixedGasLimit": false
    },
    {
      "hash": "0xff64d18f846b3f5d73c60fad5541746e2631ceab0c5709f4bdd70bef4c6016f7",
      "transactionType": "CALL",
      "contractName": "LifeOracle",
      "contractAddress": "0x22d645a97a056e673b290c1e537d18423ffa4d20",
      "function": "setDomainRoles(bytes32,uint8)",
      "arguments": [
        "0xfc00d2d47b594baaf884881f6614d9c9ba4a9a8a2498b6c2480efa6865e5c4e5",
        "4"
      ],
      "transaction": {
        "from": "0x6636a1ccbdf54485067304c1a590de016dead9f0",
        "to": "0x22d645a97a056e673b290c1e537d18423ffa4d20",
        "gas": "0x111dd",
        "value": "0x0",
        "input": "0x799f23b5fc00d2d47b594baaf884881f6614d9c9ba4a9a8a2498b6c2480efa6865e5c4e50000000000000000000000000000000000000000000000000000000000000004",
        "nonce": "0x3a3",
        "chainId": "0x64"
      },
      "additionalContracts": [],
      "isFixedGasLimit": false
    },
    {
      "hash": "0x815d8be78b66200421d4c563909c6b595ee42ebc570ebb1fce764979928816dd",
      "transactionType": "CALL",
      "contractName": "DKIMRegistry",
      "contractAddress": "0xa40c38e3b7c8fc30be98f0de17371497cca70e35",
      "function": "setKey(bytes32,bytes32,uint64,uint64)",
      "arguments": [
        "0x2ef355c36047c867708206fd4439bf1782d8c92346a0d797c19e406d600be6d3",
        "0x351a10d4002b512a526e285319105c45150cc7e8daf64da2f4e0107ed48b1ef8",
        "0",
        "0"
      ],
      "transaction": {
        "from": "0x6636a1ccbdf54485067304c1a590de016dead9f0",
        "to": "0xa40c38e3b7c8fc30be98f0de17371497cca70e35",
        "gas": "0x10bd9",
        "value": "0x0",
        "input": "0xf259fda92ef355c36047c867708206fd4439bf1782d8c92346a0d797c19e406d600be6d3351a10d4002b512a526e285319105c45150cc7e8daf64da2f4e0107ed48b1ef800000000000000000000000000000000000000000000000000000000000000000000000000000000000000000000000000000000000000000000000000000000",
        "nonce": "0x3a4",
        "chainId": "0x64"
      },
      "additionalContracts": [],
      "isFixedGasLimit": false
    },
    {
      "hash": "0x7eb906d7ee31ce467422d825a5eba7a4b756ede055a581252b0067825d6018c8",
      "transactionType": "CALL",
      "contractName": "LifeOracle",
      "contractAddress": "0x22d645a97a056e673b290c1e537d18423ffa4d20",
      "function": "setDomainRoles(bytes32,uint8)",
      "arguments": [
        "0x2ef355c36047c867708206fd4439bf1782d8c92346a0d797c19e406d600be6d3",
        "4"
      ],
      "transaction": {
        "from": "0x6636a1ccbdf54485067304c1a590de016dead9f0",
        "to": "0x22d645a97a056e673b290c1e537d18423ffa4d20",
        "gas": "0x102b5",
        "value": "0x0",
        "input": "0x799f23b52ef355c36047c867708206fd4439bf1782d8c92346a0d797c19e406d600be6d30000000000000000000000000000000000000000000000000000000000000004",
        "nonce": "0x3a5",
        "chainId": "0x64"
      },
      "additionalContracts": [],
      "isFixedGasLimit": false
    },
    {
      "hash": "0x9d674f880b435e021b94d2193f932010524894d27c0279f9ff6abc4090b61faa",
      "transactionType": "CALL",
      "contractName": "DKIMRegistry",
      "contractAddress": "0xa40c38e3b7c8fc30be98f0de17371497cca70e35",
      "function": "setKey(bytes32,bytes32,uint64,uint64)",
      "arguments": [
        "0x69e0b58ffc1cbb204718de64a16f93b74d5d30410a14d4ee8c09da49ba6da058",
        "0xbcd6d31329ae040b31f3d9e02ca253069091270e7dc94a3eb1492438d7718bb0",
        "0",
        "0"
      ],
      "transaction": {
        "from": "0x6636a1ccbdf54485067304c1a590de016dead9f0",
        "to": "0xa40c38e3b7c8fc30be98f0de17371497cca70e35",
        "gas": "0x10bea",
        "value": "0x0",
        "input": "0xf259fda969e0b58ffc1cbb204718de64a16f93b74d5d30410a14d4ee8c09da49ba6da058bcd6d31329ae040b31f3d9e02ca253069091270e7dc94a3eb1492438d7718bb000000000000000000000000000000000000000000000000000000000000000000000000000000000000000000000000000000000000000000000000000000000",
        "nonce": "0x3a6",
        "chainId": "0x64"
      },
      "additionalContracts": [],
      "isFixedGasLimit": false
    },
    {
      "hash": "0x5e1928e0cbee459ee14bf358cbdb32898f3473dd4b704f28ca3dd791c6321aa9",
      "transactionType": "CALL",
      "contractName": "LifeOracle",
      "contractAddress": "0x22d645a97a056e673b290c1e537d18423ffa4d20",
      "function": "setDomainRoles(bytes32,uint8)",
      "arguments": [
        "0x69e0b58ffc1cbb204718de64a16f93b74d5d30410a14d4ee8c09da49ba6da058",
        "4"
      ],
      "transaction": {
        "from": "0x6636a1ccbdf54485067304c1a590de016dead9f0",
        "to": "0x22d645a97a056e673b290c1e537d18423ffa4d20",
        "gas": "0x102b5",
        "value": "0x0",
        "input": "0x799f23b569e0b58ffc1cbb204718de64a16f93b74d5d30410a14d4ee8c09da49ba6da0580000000000000000000000000000000000000000000000000000000000000004",
        "nonce": "0x3a7",
        "chainId": "0x64"
      },
      "additionalContracts": [],
      "isFixedGasLimit": false
    },
    {
      "hash": "0x2d2570df07c5410cd9fafd923c1c4dff4a0efe5cd85b43d916dbd8b1e5d249c5",
      "transactionType": "CALL",
      "contractName": "DKIMRegistry",
      "contractAddress": "0xa40c38e3b7c8fc30be98f0de17371497cca70e35",
      "function": "setKey(bytes32,bytes32,uint64,uint64)",
      "arguments": [
        "0xfd1cd8587dafd61302ec45de150eaedeb79a4c3bfc1c484f795f2c8a4e3d6d4e",
        "0xc6589aa5ff5ed77c1eff6c8413846a1225cdfca47cad6da9e5af6bd553fbb3e8",
        "0",
        "0"
      ],
      "transaction": {
        "from": "0x6636a1ccbdf54485067304c1a590de016dead9f0",
        "to": "0xa40c38e3b7c8fc30be98f0de17371497cca70e35",
        "gas": "0x10bea",
        "value": "0x0",
        "input": "0xf259fda9fd1cd8587dafd61302ec45de150eaedeb79a4c3bfc1c484f795f2c8a4e3d6d4ec6589aa5ff5ed77c1eff6c8413846a1225cdfca47cad6da9e5af6bd553fbb3e800000000000000000000000000000000000000000000000000000000000000000000000000000000000000000000000000000000000000000000000000000000",
        "nonce": "0x3a8",
        "chainId": "0x64"
      },
      "additionalContracts": [],
      "isFixedGasLimit": false
    },
    {
      "hash": "0xb7100326581f421e12444d59092d5722f954460e8cc67ffa566dc3f9f692ab17",
      "transactionType": "CALL",
      "contractName": "LifeOracle",
      "contractAddress": "0x22d645a97a056e673b290c1e537d18423ffa4d20",
      "function": "setDomainRoles(bytes32,uint8)",
      "arguments": [
        "0xfd1cd8587dafd61302ec45de150eaedeb79a4c3bfc1c484f795f2c8a4e3d6d4e",
        "4"
      ],
      "transaction": {
        "from": "0x6636a1ccbdf54485067304c1a590de016dead9f0",
        "to": "0x22d645a97a056e673b290c1e537d18423ffa4d20",
        "gas": "0x102b5",
        "value": "0x0",
        "input": "0x799f23b5fd1cd8587dafd61302ec45de150eaedeb79a4c3bfc1c484f795f2c8a4e3d6d4e0000000000000000000000000000000000000000000000000000000000000004",
        "nonce": "0x3a9",
        "chainId": "0x64"
      },
      "additionalContracts": [],
      "isFixedGasLimit": false
    },
    {
      "hash": "0xb6b04c6c081a7df685091807daeec66afe20d4da966fd4fa91f1e722c84485e5",
      "transactionType": "CALL",
      "contractName": "ZKEmailVerifier",
      "contractAddress": "0xb6132c8376802657c18049a8ac6c65fc8a85aa29",
      "function": "setVerifier(bytes32,address)",
      "arguments": [
        "0xaf0e629bab05558ec79a04ffb31828259b64bb695209ea05b057a9099069431d",
        "0x01234d1F1Ed3554c17a10941288195d90FD005C8"
      ],
      "transaction": {
        "from": "0x6636a1ccbdf54485067304c1a590de016dead9f0",
        "to": "0xb6132c8376802657c18049a8ac6c65fc8a85aa29",
        "gas": "0x103b2",
        "value": "0x0",
        "input": "0xa692b9efaf0e629bab05558ec79a04ffb31828259b64bb695209ea05b057a9099069431d00000000000000000000000001234d1f1ed3554c17a10941288195d90fd005c8",
        "nonce": "0x3aa",
        "chainId": "0x64"
      },
      "additionalContracts": [],
      "isFixedGasLimit": false
    },
    {
      "hash": "0xbc355c38affd7cbc709c206c08b8fee34fda887a0db18be1ab975d27c7008f78",
      "transactionType": "CALL",
      "contractName": "ZKEmailVerifier",
      "contractAddress": "0xb6132c8376802657c18049a8ac6c65fc8a85aa29",
      "function": "setVerifier(bytes32,address)",
      "arguments": [
        "0x373f1840b4ba84dfb9407f17aaadff5231b2028ae473ee93737a936af13b4ed1",
        "0x01234d1F1Ed3554c17a10941288195d90FD005C8"
      ],
      "transaction": {
        "from": "0x6636a1ccbdf54485067304c1a590de016dead9f0",
        "to": "0xb6132c8376802657c18049a8ac6c65fc8a85aa29",
        "gas": "0x103b2",
        "value": "0x0",
        "input": "0xa692b9ef373f1840b4ba84dfb9407f17aaadff5231b2028ae473ee93737a936af13b4ed100000000000000000000000001234d1f1ed3554c17a10941288195d90fd005c8",
        "nonce": "0x3ab",
        "chainId": "0x64"
      },
      "additionalContracts": [],
      "isFixedGasLimit": false
    },
    {
      "hash": "0x9891a1c8c2afea3d4821555db959d9dcfb26095c6e6c748c8e3d6f8850e9615b",
      "transactionType": "CALL",
      "contractName": "ZKEmailVerifier",
      "contractAddress": "0xb6132c8376802657c18049a8ac6c65fc8a85aa29",
      "function": "setVerifier(bytes32,address)",
      "arguments": [
        "0xe4e21d06eee0ae2c34e0ce87fa95d207c01cb56afa75c3cf58ac8fd998e6c26c",
        "0x01234d1F1Ed3554c17a10941288195d90FD005C8"
      ],
      "transaction": {
        "from": "0x6636a1ccbdf54485067304c1a590de016dead9f0",
        "to": "0xb6132c8376802657c18049a8ac6c65fc8a85aa29",
        "gas": "0x103b2",
        "value": "0x0",
        "input": "0xa692b9efe4e21d06eee0ae2c34e0ce87fa95d207c01cb56afa75c3cf58ac8fd998e6c26c00000000000000000000000001234d1f1ed3554c17a10941288195d90fd005c8",
        "nonce": "0x3ac",
        "chainId": "0x64"
      },
      "additionalContracts": [],
      "isFixedGasLimit": false
    }
  ],
  "receipts": [
    {
      "status": "0x1",
      "cumulativeGasUsed": "0x7224ca",
      "logs": [
        {
          "address": "0xa40c38e3b7c8fc30be98f0de17371497cca70e35",
          "topics": [
            "0x8be0079c531659141344cd1fd0a4f28419497f9722a3daafe3b4186f6b6457e0",
            "0x0000000000000000000000000000000000000000000000000000000000000000",
            "0x0000000000000000000000006636a1ccbdf54485067304c1a590de016dead9f0"
          ],
          "data": "0x",
          "blockHash": "0xa6e5790717d49a41e3f072819cf57ec9aaf370704455fe3c1807c4f58dadbe6c",
          "blockNumber": "0x2d03b52",
          "blockTimestamp": "0x6a56616f",
          "transactionHash": "0x621e44df614d08a660b0608fcad1bc47dd857aff02a0a6b6e6b71c5351d12f68",
          "transactionIndex": "0xb",
          "logIndex": "0x7d",
          "removed": false
        },
        {
          "address": "0xa40c38e3b7c8fc30be98f0de17371497cca70e35",
          "topics": [
            "0xe6c09ffe4572dc9ceaa5ddde4ae41befa655d6fdfe8052077af0970f700e942e",
            "0x0000000000000000000000006636a1ccbdf54485067304c1a590de016dead9f0"
          ],
          "data": "0x",
          "blockHash": "0xa6e5790717d49a41e3f072819cf57ec9aaf370704455fe3c1807c4f58dadbe6c",
          "blockNumber": "0x2d03b52",
          "blockTimestamp": "0x6a56616f",
          "transactionHash": "0x621e44df614d08a660b0608fcad1bc47dd857aff02a0a6b6e6b71c5351d12f68",
          "transactionIndex": "0xb",
          "logIndex": "0x7e",
          "removed": false
        }
      ],
      "logsBloom": "0x00000000000000000000000000000000000000000020000000800000000002000000000000000000000000000000000000000000000000000000000000000000000000000000000000020000000000000001000000000000000000000000000000000000020000000000000000000800000000000000000000000000000000400080000000000000000000000000000000000000000000000000000000000000000000000000000000000000000000080000000000000000000000000080000000000000000000000000000000000000000000000000800000002000000020000000000000000000000000000000000000000100000000000000000000000000",
      "type": "0x2",
      "transactionHash": "0x621e44df614d08a660b0608fcad1bc47dd857aff02a0a6b6e6b71c5351d12f68",
      "transactionIndex": "0xb",
      "blockHash": "0xa6e5790717d49a41e3f072819cf57ec9aaf370704455fe3c1807c4f58dadbe6c",
      "blockNumber": "0x2d03b52",
      "gasUsed": "0x73468",
      "effectiveGasPrice": "0xe6840",
      "blobGasUsed": "0x0",
      "from": "0x6636a1ccbdf54485067304c1a590de016dead9f0",
      "to": null,
      "contractAddress": "0xa40c38e3b7c8fc30be98f0de17371497cca70e35"
    },
    {
      "status": "0x1",
      "cumulativeGasUsed": "0x782f68",
      "logs": [
        {
          "address": "0xb6132c8376802657c18049a8ac6c65fc8a85aa29",
          "topics": [
            "0x8be0079c531659141344cd1fd0a4f28419497f9722a3daafe3b4186f6b6457e0",
            "0x0000000000000000000000000000000000000000000000000000000000000000",
            "0x0000000000000000000000006636a1ccbdf54485067304c1a590de016dead9f0"
          ],
          "data": "0x",
          "blockHash": "0xa6e5790717d49a41e3f072819cf57ec9aaf370704455fe3c1807c4f58dadbe6c",
          "blockNumber": "0x2d03b52",
          "blockTimestamp": "0x6a56616f",
          "transactionHash": "0xbcc3808fad762d64f53f9f4abdb65c3688b0c64136cda9dfb2e3848af8fd3d88",
          "transactionIndex": "0xc",
          "logIndex": "0x7f",
          "removed": false
        }
      ],
      "logsBloom": "0x00000000000000000000000000000000000000000001000000800000000000000000000000000000000000000000000000000000000000000000000000000000000000000000000000020000000000000001000000000000000000000000000000000000020000000000000000000800000000000000000800000000000000400080020000000000000000000000000000000000000000000000000000000000000000000000000000000000000000000000000000000000000000000000000000000000000000000000000000000000000000000000800000000000000020000000000000000000000000000000000000000000000000000000000000000000",
      "type": "0x2",
      "transactionHash": "0xbcc3808fad762d64f53f9f4abdb65c3688b0c64136cda9dfb2e3848af8fd3d88",
      "transactionIndex": "0xc",
      "blockHash": "0xa6e5790717d49a41e3f072819cf57ec9aaf370704455fe3c1807c4f58dadbe6c",
      "blockNumber": "0x2d03b52",
      "gasUsed": "0x60a9e",
      "effectiveGasPrice": "0xe6840",
      "blobGasUsed": "0x0",
      "from": "0x6636a1ccbdf54485067304c1a590de016dead9f0",
      "to": null,
      "contractAddress": "0xb6132c8376802657c18049a8ac6c65fc8a85aa29"
    },
    {
      "status": "0x1",
      "cumulativeGasUsed": "0x7b817a",
      "logs": [],
      "logsBloom": "0x00000000000000000000000000000000000000000000000000000000000000000000000000000000000000000000000000000000000000000000000000000000000000000000000000000000000000000000000000000000000000000000000000000000000000000000000000000000000000000000000000000000000000000000000000000000000000000000000000000000000000000000000000000000000000000000000000000000000000000000000000000000000000000000000000000000000000000000000000000000000000000000000000000000000000000000000000000000000000000000000000000000000000000000000000000000",
      "type": "0x2",
      "transactionHash": "0x87a7a2c0604353ba4067aa4a5d1cda30326379c0c6ff66df5dc131150553b58f",
      "transactionIndex": "0xd",
      "blockHash": "0xa6e5790717d49a41e3f072819cf57ec9aaf370704455fe3c1807c4f58dadbe6c",
      "blockNumber": "0x2d03b52",
      "gasUsed": "0x35212",
      "effectiveGasPrice": "0xe6840",
      "blobGasUsed": "0x0",
      "from": "0x6636a1ccbdf54485067304c1a590de016dead9f0",
      "to": null,
      "contractAddress": "0x01234d1f1ed3554c17a10941288195d90fd005c8"
    },
    {
      "status": "0x1",
      "cumulativeGasUsed": "0x98cca9",
      "logs": [
        {
          "address": "0x22d645a97a056e673b290c1e537d18423ffa4d20",
          "topics": [
            "0x8be0079c531659141344cd1fd0a4f28419497f9722a3daafe3b4186f6b6457e0",
            "0x0000000000000000000000000000000000000000000000000000000000000000",
            "0x0000000000000000000000006636a1ccbdf54485067304c1a590de016dead9f0"
          ],
          "data": "0x",
          "blockHash": "0xa6e5790717d49a41e3f072819cf57ec9aaf370704455fe3c1807c4f58dadbe6c",
          "blockNumber": "0x2d03b52",
          "blockTimestamp": "0x6a56616f",
          "transactionHash": "0x25aa006497a3e675d5df3187a30a3be3148683ea9253a58d3433424c522f3566",
          "transactionIndex": "0xe",
          "logIndex": "0x80",
          "removed": false
        }
      ],
      "logsBloom": "0x00000000000000000000000000000000000000000000000000800000000000000000000000000000000000000000000000000000000000000000000000000000000000000000000000020000000000000001000000000000000000000000000000000000020000000000000000000800000000000000000000000000000000400080000000000000000000000000000000000000000000000000020000000000000000000000000000000000000000000000000000000000000000000000000000020000000000000000000000000000000000000000800002000000000020000000000000000000000000000000000000000000000000000000000000000000",
      "type": "0x2",
      "transactionHash": "0x25aa006497a3e675d5df3187a30a3be3148683ea9253a58d3433424c522f3566",
      "transactionIndex": "0xe",
      "blockHash": "0xa6e5790717d49a41e3f072819cf57ec9aaf370704455fe3c1807c4f58dadbe6c",
      "blockNumber": "0x2d03b52",
      "gasUsed": "0x1d4b2f",
      "effectiveGasPrice": "0xe6840",
      "blobGasUsed": "0x0",
      "from": "0x6636a1ccbdf54485067304c1a590de016dead9f0",
      "to": null,
      "contractAddress": "0x22d645a97a056e673b290c1e537d18423ffa4d20"
    },
    {
      "status": "0x1",
      "cumulativeGasUsed": "0xc3fc87",
      "logs": [],
      "logsBloom": "0x00000000000000000000000000000000000000000000000000000000000000000000000000000000000000000000000000000000000000000000000000000000000000000000000000000000000000000000000000000000000000000000000000000000000000000000000000000000000000000000000000000000000000000000000000000000000000000000000000000000000000000000000000000000000000000000000000000000000000000000000000000000000000000000000000000000000000000000000000000000000000000000000000000000000000000000000000000000000000000000000000000000000000000000000000000000",
      "type": "0x2",
      "transactionHash": "0x815d8be78b66200421d4c563909c6b595ee42ebc570ebb1fce764979928816dd",
      "transactionIndex": "0xf",
      "blockHash": "0xa6e5790717d49a41e3f072819cf57ec9aaf370704455fe3c1807c4f58dadbe6c",
      "blockNumber": "0x2d03b52",
      "gasUsed": "0x2b2fde",
      "effectiveGasPrice": "0xe6840",
      "blobGasUsed": "0x0",
      "from": "0x6636a1ccbdf54485067304c1a590de016dead9f0",
      "to": null,
      "contractAddress": "0xb525b70b256f355331d687bef70f9b97104b2784"
    },
    {
      "status": "0x1",
      "cumulativeGasUsed": "0xe3adae",
      "logs": [
        {
          "address": "0xe91d153e0b41518a2ce8dd3d7944fa863463a97d",
          "topics": [
            "0x8c5be1e5ebec7d5bd14f71427d1e84f3dd0314c0f7b2291e5b200ac8c7c3b925",
            "0x0000000000000000000000009f3bea11734570a8260cb560f0cdef11ac8258f5",
            "0x000000000000000000000000af204776c7245bf4147c2612bf6e5972ee483701"
          ],
          "data": "0xffffffffffffffffffffffffffffffffffffffffffffffffffffffffffffffff",
          "blockHash": "0xa6e5790717d49a41e3f072819cf57ec9aaf370704455fe3c1807c4f58dadbe6c",
          "blockNumber": "0x2d03b52",
          "blockTimestamp": "0x6a56616f",
          "transactionHash": "0xd6385ba34cab0c3c2d27959e784caf11db22d61dfdc968977243e4e9994536b3",
          "transactionIndex": "0x10",
          "logIndex": "0x81",
          "removed": false
        },
        {
          "address": "0xb525b70b256f355331d687bef70f9b97104b2784",
          "topics": [
            "0xcf549807c1659a55b35235e2dc25c4f1b5af742176a6bba1e27135defb29f385",
            "0x0000000000000000000000009f3bea11734570a8260cb560f0cdef11ac8258f5"
          ],
          "data": "0x0000000000000000000000000000000000000000000000000000000000000040000000000000000000000000000000000000000000000000000000006a566bf1000000000000000000000000000000000000000000000000000000000000000b44656d6f20436f686f7274000000000000000000000000000000000000000000",
          "blockHash": "0xa6e5790717d49a41e3f072819cf57ec9aaf370704455fe3c1807c4f58dadbe6c",
          "blockNumber": "0x2d03b52",
          "blockTimestamp": "0x6a56616f",
          "transactionHash": "0xd6385ba34cab0c3c2d27959e784caf11db22d61dfdc968977243e4e9994536b3",
          "transactionIndex": "0x10",
          "logIndex": "0x82",
          "removed": false
        }
      ],
      "logsBloom": "0x00000000000000000000000008000000000000000000000000004000000000000000000000000000000000000000000000000000000000000000010000200000000000000000000000000000000000000000000000000000000000000000010000000000000000080000000000000000002000000000000000000000000000000000000000000000000000000000000000000000000002000000000000000000020000000000000000010000000000000000040000000000000000000000000000000001000000000000000000000000000000000000000000000000000000000010011000001000000000000000000000000000000080000100000000000000",
      "type": "0x2",
      "transactionHash": "0xd6385ba34cab0c3c2d27959e784caf11db22d61dfdc968977243e4e9994536b3",
      "transactionIndex": "0x10",
      "blockHash": "0xa6e5790717d49a41e3f072819cf57ec9aaf370704455fe3c1807c4f58dadbe6c",
      "blockNumber": "0x2d03b52",
      "gasUsed": "0x1fb127",
      "effectiveGasPrice": "0xe6840",
      "blobGasUsed": "0x0",
      "from": "0x6636a1ccbdf54485067304c1a590de016dead9f0",
      "to": "0xb525b70b256f355331d687bef70f9b97104b2784",
      "contractAddress": null
    },
    {
      "status": "0x1",
      "cumulativeGasUsed": "0xe46f9a",
      "logs": [
        {
          "address": "0xa40c38e3b7c8fc30be98f0de17371497cca70e35",
          "topics": [
            "0x52bafeba4de2402504d61f002c2fad43812af540e5a29c0fc810adeff8526e6e",
            "0xde997f4d4968f67729cc671fb1c42560f22cdc63e46dbd5f0f0eb87bfe73d6e2",
            "0x5dac113de9f874cbf7971600319775d0e4aa73a17635e5e5e43b2415989a7da8"
          ],
          "data": "0x00000000000000000000000000000000000000000000000000000000000000000000000000000000000000000000000000000000000000000000000000000000",
          "blockHash": "0xa6e5790717d49a41e3f072819cf57ec9aaf370704455fe3c1807c4f58dadbe6c",
          "blockNumber": "0x2d03b52",
          "blockTimestamp": "0x6a56616f",
          "transactionHash": "0x725cc395554b80c5bf54eac31975dc5e23a61a01fd8bb4cb0b3fd4f79abd9af7",
          "transactionIndex": "0x11",
          "logIndex": "0x83",
          "removed": false
        }
      ],
      "logsBloom": "0x00000000000000000000200080000000000000000020000000000000000002000000000000000000000000000000000000000000000000000000000000000000000000000000000000000000000000000000000000000001000000200000000000000000000000000000000000000000000000000000000000000000000000000000000000400000000000000000040000000000000000000000000000000000000000000000010000000000000000000000000000000000000000000000000000000000000000000000000020008000000000000000000000002000000000000000000000000000000000000000000000000000000000000000000000000000",
      "type": "0x2",
      "transactionHash": "0x725cc395554b80c5bf54eac31975dc5e23a61a01fd8bb4cb0b3fd4f79abd9af7",
      "transactionIndex": "0x11",
      "blockHash": "0xa6e5790717d49a41e3f072819cf57ec9aaf370704455fe3c1807c4f58dadbe6c",
      "blockNumber": "0x2d03b52",
      "gasUsed": "0xc1ec",
      "effectiveGasPrice": "0xe6840",
      "blobGasUsed": "0x0",
      "from": "0x6636a1ccbdf54485067304c1a590de016dead9f0",
      "to": "0xa40c38e3b7c8fc30be98f0de17371497cca70e35",
      "contractAddress": null
    },
    {
      "status": "0x1",
      "cumulativeGasUsed": "0xe52ae8",
      "logs": [
        {
          "address": "0x22d645a97a056e673b290c1e537d18423ffa4d20",
          "topics": [
            "0xb25583a674106e80ada6266af0fade6be76a81c3cc3b921ab0e70fa63f92a70a",
            "0xde997f4d4968f67729cc671fb1c42560f22cdc63e46dbd5f0f0eb87bfe73d6e2"
          ],
          "data": "0x0000000000000000000000000000000000000000000000000000000000000003",
          "blockHash": "0xa6e5790717d49a41e3f072819cf57ec9aaf370704455fe3c1807c4f58dadbe6c",
          "blockNumber": "0x2d03b52",
          "blockTimestamp": "0x6a56616f",
          "transactionHash": "0x64e18d70dd21ba711f84985f3950c66f305a2eff532098c808093c789ec3cb5d",
          "transactionIndex": "0x12",
          "logIndex": "0x84",
          "removed": false
        }
      ],
      "logsBloom": "0x00000000000000000000000080000000000000000000000000000000000000000000000000000000000000000000000000000000000000000000000000000000000000000000000000000000000000000000000080000000000000000000000000000000000400000000000000000000000000000000000000000000000000000000000000400000000000000000000000000000000000000000020000000000000000000000000000000000000000000000000000000000000000000000000000020000000000000000000020000000000000000000000002000000000000000000000000000000000000000000000000000000400000000000000000000000",
      "type": "0x2",
      "transactionHash": "0x64e18d70dd21ba711f84985f3950c66f305a2eff532098c808093c789ec3cb5d",
      "transactionIndex": "0x12",
      "blockHash": "0xa6e5790717d49a41e3f072819cf57ec9aaf370704455fe3c1807c4f58dadbe6c",
      "blockNumber": "0x2d03b52",
      "gasUsed": "0xbb4e",
      "effectiveGasPrice": "0xe6840",
      "blobGasUsed": "0x0",
      "from": "0x6636a1ccbdf54485067304c1a590de016dead9f0",
      "to": "0x22d645a97a056e673b290c1e537d18423ffa4d20",
      "contractAddress": null
    },
    {
      "status": "0x1",
      "cumulativeGasUsed": "0xe5ece0",
      "logs": [
        {
          "address": "0xa40c38e3b7c8fc30be98f0de17371497cca70e35",
          "topics": [
            "0x52bafeba4de2402504d61f002c2fad43812af540e5a29c0fc810adeff8526e6e",
            "0xfc99c0d3f73deddc9f7f01f762bc355f879936c0edaf1d2c01c8c92144f94ce9",
            "0xd2c22aa2b0b0833b6f158b6c602670dccdaa7b697a3f7dd8da4fa00634657fcc"
          ],
          "data": "0x00000000000000000000000000000000000000000000000000000000000000000000000000000000000000000000000000000000000000000000000000000000",
          "blockHash": "0xa6e5790717d49a41e3f072819cf57ec9aaf370704455fe3c1807c4f58dadbe6c",
          "blockNumber": "0x2d03b52",
          "blockTimestamp": "0x6a56616f",
          "transactionHash": "0xa143f6a7c6721641b155dc93f89f8a28bfce70831d26c1750ba944ce2e0a0bfa",
          "transactionIndex": "0x13",
          "logIndex": "0x85",
          "removed": false
        }
      ],
      "logsBloom": "0x00000000000000000000200000000000000000000020000000000000000002000000000000000000000000000000000000000000000000000000000040000040000000000000000000000000000000000000000000000001000000000000000000000000000000000000000000000000000000000000000000000000000000000000000000000000000000000000040000000000000000000000000000000000000000000008000000000000000008000000000000000000000000000000000000000000000000000000000400000000000000000000000000002000000000000000000000000000000000000000000000000010000000000000000000000000",
      "type": "0x2",
      "transactionHash": "0xa143f6a7c6721641b155dc93f89f8a28bfce70831d26c1750ba944ce2e0a0bfa",
      "transactionIndex": "0x13",
      "blockHash": "0xa6e5790717d49a41e3f072819cf57ec9aaf370704455fe3c1807c4f58dadbe6c",
      "blockNumber": "0x2d03b52",
      "gasUsed": "0xc1f8",
      "effectiveGasPrice": "0xe6840",
      "blobGasUsed": "0x0",
      "from": "0x6636a1ccbdf54485067304c1a590de016dead9f0",
      "to": "0xa40c38e3b7c8fc30be98f0de17371497cca70e35",
      "contractAddress": null
    },
    {
      "status": "0x1",
      "cumulativeGasUsed": "0xe6a82e",
      "logs": [
        {
          "address": "0x22d645a97a056e673b290c1e537d18423ffa4d20",
          "topics": [
            "0xb25583a674106e80ada6266af0fade6be76a81c3cc3b921ab0e70fa63f92a70a",
            "0xfc99c0d3f73deddc9f7f01f762bc355f879936c0edaf1d2c01c8c92144f94ce9"
          ],
          "data": "0x0000000000000000000000000000000000000000000000000000000000000003",
          "blockHash": "0xa6e5790717d49a41e3f072819cf57ec9aaf370704455fe3c1807c4f58dadbe6c",
          "blockNumber": "0x2d03b52",
          "blockTimestamp": "0x6a56616f",
          "transactionHash": "0xbf44e5d532836b7e0b090baf9f4ef9a386a5b821db3014e8e755e20b19f9ef1a",
          "transactionIndex": "0x14",
          "logIndex": "0x86",
          "removed": false
        }
      ],
      "logsBloom": "0x00000000000000000000000000000000000000000000000000000000000000000000000000000000000000000000000000000000000000000000000040000000000000000000000000000000000000000000000080000000000000000000000000000000000400000000000000000000000000000000000000000000000000000000000000000000000000000000000000000000000000000000020000000000000000000008000000000000000008000000000000000000000000000000000000020000000000000000000000000000000000000000000002000000000000000000000000000000000000000000000000000000400000000000000000000000",
      "type": "0x2",
      "transactionHash": "0xbf44e5d532836b7e0b090baf9f4ef9a386a5b821db3014e8e755e20b19f9ef1a",
      "transactionIndex": "0x14",
      "blockHash": "0xa6e5790717d49a41e3f072819cf57ec9aaf370704455fe3c1807c4f58dadbe6c",
      "blockNumber": "0x2d03b52",
      "gasUsed": "0xbb4e",
      "effectiveGasPrice": "0xe6840",
      "blobGasUsed": "0x0",
      "from": "0x6636a1ccbdf54485067304c1a590de016dead9f0",
      "to": "0x22d645a97a056e673b290c1e537d18423ffa4d20",
      "contractAddress": null
    },
    {
      "status": "0x1",
      "cumulativeGasUsed": "0xe76a26",
      "logs": [
        {
          "address": "0xa40c38e3b7c8fc30be98f0de17371497cca70e35",
          "topics": [
            "0x52bafeba4de2402504d61f002c2fad43812af540e5a29c0fc810adeff8526e6e",
            "0x5a0ef538cd2e93f144d86322227a06968a41958424e792b43aa8f095713a0c71",
            "0xba853069cc96aae06a28787d71714244d78dd395785a5ce963870de070e714cf"
          ],
          "data": "0x00000000000000000000000000000000000000000000000000000000000000000000000000000000000000000000000000000000000000000000000000000000",
          "blockHash": "0xa6e5790717d49a41e3f072819cf57ec9aaf370704455fe3c1807c4f58dadbe6c",
          "blockNumber": "0x2d03b52",
          "blockTimestamp": "0x6a56616f",
          "transactionHash": "0x6e2d397a344b79b22ee2c4b28d0b60b97defbbcd13440712544a2b7d49d425e7",
          "transactionIndex": "0x15",
          "logIndex": "0x87",
          "removed": false
        }
      ],
      "logsBloom": "0x00000000000000000000200000000040000000000020000000000000000002000000000000000000000000000000000000000000000000000000000000000000000000000000000000000000000000000000000000000001000000000000000000000000000000000000040000000000000000000000000000000000000000000000000000000000000000000000040000000000000000000000000000000000020000000000000000000000000000000000000000000000000000000000000000000000000000000000000000000000000000000000000000002000000000000000000000000000000800000000000000000000080000000000400000000000",
      "type": "0x2",
      "transactionHash": "0x6e2d397a344b79b22ee2c4b28d0b60b97defbbcd13440712544a2b7d49d425e7",
      "transactionIndex": "0x15",
      "blockHash": "0xa6e5790717d49a41e3f072819cf57ec9aaf370704455fe3c1807c4f58dadbe6c",
      "blockNumber": "0x2d03b52",
      "gasUsed": "0xc1f8",
      "effectiveGasPrice": "0xe6840",
      "blobGasUsed": "0x0",
      "from": "0x6636a1ccbdf54485067304c1a590de016dead9f0",
      "to": "0xa40c38e3b7c8fc30be98f0de17371497cca70e35",
      "contractAddress": null
    },
    {
      "status": "0x1",
      "cumulativeGasUsed": "0xe82574",
      "logs": [
        {
          "address": "0x22d645a97a056e673b290c1e537d18423ffa4d20",
          "topics": [
            "0xb25583a674106e80ada6266af0fade6be76a81c3cc3b921ab0e70fa63f92a70a",
            "0x5a0ef538cd2e93f144d86322227a06968a41958424e792b43aa8f095713a0c71"
          ],
          "data": "0x0000000000000000000000000000000000000000000000000000000000000003",
          "blockHash": "0xa6e5790717d49a41e3f072819cf57ec9aaf370704455fe3c1807c4f58dadbe6c",
          "blockNumber": "0x2d03b52",
          "blockTimestamp": "0x6a56616f",
          "transactionHash": "0x22785b7193f73410aedf200dfbb7cd288f502f15b6f791b9d25364b66a76a269",
          "transactionIndex": "0x16",
          "logIndex": "0x88",
          "removed": false
        }
      ],
      "logsBloom": "0x00000000000000000000000000000040000000000000000000000000000000000000000000000000000000000000000000000000000000000000000000000000000000000000000000000000000000000000000080000000000000000000000000000000000400000000000000000000000000000000000000000000000000000000000000000000000000000000000000000000000000000000020000000000000000000000000000000000000000000000000000000000000000000000000000020000000000000000000000000000000000000000000002000000000000000000000000000000000800000000000000000000400000000000400000000000",
      "type": "0x2",
      "transactionHash": "0x22785b7193f73410aedf200dfbb7cd288f502f15b6f791b9d25364b66a76a269",
      "transactionIndex": "0x16",
      "blockHash": "0xa6e5790717d49a41e3f072819cf57ec9aaf370704455fe3c1807c4f58dadbe6c",
      "blockNumber": "0x2d03b52",
      "gasUsed": "0xbb4e",
      "effectiveGasPrice": "0xe6840",
      "blobGasUsed": "0x0",
      "from": "0x6636a1ccbdf54485067304c1a590de016dead9f0",
      "to": "0x22d645a97a056e673b290c1e537d18423ffa4d20",
      "contractAddress": null
    },
    {
      "status": "0x1",
      "cumulativeGasUsed": "0xe8e760",
      "logs": [
        {
          "address": "0xa40c38e3b7c8fc30be98f0de17371497cca70e35",
          "topics": [
            "0x52bafeba4de2402504d61f002c2fad43812af540e5a29c0fc810adeff8526e6e",
            "0xf06c2fa7f94c6000cb014d20043e5460c117d91256c0e1c8bb8728f2a127fea0",
            "0x28e21cd094c669ff7b7c5f64f59fde1e1ced965edaf22377a504523fb3d292db"
          ],
          "data": "0x00000000000000000000000000000000000000000000000000000000000000000000000000000000000000000000000000000000000000000000000000000000",
          "blockHash": "0xa6e5790717d49a41e3f072819cf57ec9aaf370704455fe3c1807c4f58dadbe6c",
          "blockNumber": "0x2d03b52",
          "blockTimestamp": "0x6a56616f",
          "transactionHash": "0xa22ca1b3922cea82ccfabd01407e12d1f2e2e937816f3b4c8b46b60cc3afa6ac",
          "transactionIndex": "0x17",
          "logIndex": "0x89",
          "removed": false
        }
      ],
      "logsBloom": "0x00000000800000000000200000000000000000000020000400000000000002000000000000000080000000000000000000000000000000000000000000000000000000000000000000000000000000000000000000000001000000000000000000000000000000000000000000000000000000000000000000000000000000000000000000000000000040000000040000000000000000000000000000000000000000000000000000000000000008000000000000000000000000000000000000000000000000000000000000000000000000000000000000002000000000000000000000000000000000000000000000000800000000000000000000000000",
      "type": "0x2",
      "transactionHash": "0xa22ca1b3922cea82ccfabd01407e12d1f2e2e937816f3b4c8b46b60cc3afa6ac",
      "transactionIndex": "0x17",
      "blockHash": "0xa6e5790717d49a41e3f072819cf57ec9aaf370704455fe3c1807c4f58dadbe6c",
      "blockNumber": "0x2d03b52",
      "gasUsed": "0xc1ec",
      "effectiveGasPrice": "0xe6840",
      "blobGasUsed": "0x0",
      "from": "0x6636a1ccbdf54485067304c1a590de016dead9f0",
      "to": "0xa40c38e3b7c8fc30be98f0de17371497cca70e35",
      "contractAddress": null
    },
    {
      "status": "0x1",
      "cumulativeGasUsed": "0xe9a2a2",
      "logs": [
        {
          "address": "0x22d645a97a056e673b290c1e537d18423ffa4d20",
          "topics": [
            "0xb25583a674106e80ada6266af0fade6be76a81c3cc3b921ab0e70fa63f92a70a",
            "0xf06c2fa7f94c6000cb014d20043e5460c117d91256c0e1c8bb8728f2a127fea0"
          ],
          "data": "0x0000000000000000000000000000000000000000000000000000000000000003",
          "blockHash": "0xa6e5790717d49a41e3f072819cf57ec9aaf370704455fe3c1807c4f58dadbe6c",
          "blockNumber": "0x2d03b52",
          "blockTimestamp": "0x6a56616f",
          "transactionHash": "0x413ec0868db5eee3a12541f64e2fb6d1379a76ea50edeff5ab04d8e139c853c8",
          "transactionIndex": "0x18",
          "logIndex": "0x8a",
          "removed": false
        }
      ],
      "logsBloom": "0x00000000800000000000000000000000000000000000000000000000000000000000000000000080000000000000000000000000000000000000000000000000000000000000000000000000000000000000000080000000000000000000000000000000000400000000000000000000000000000000000000000000000000000000000000000000000000000000000000000000000000000000020000000000000000000000000000000000000008000000000000000000000000000000000000020000000000000000000000000000000000000000000002000000000000000000000000000000000000000000000000000000400000000000000000000000",
      "type": "0x2",
      "transactionHash": "0x413ec0868db5eee3a12541f64e2fb6d1379a76ea50edeff5ab04d8e139c853c8",
      "transactionIndex": "0x18",
      "blockHash": "0xa6e5790717d49a41e3f072819cf57ec9aaf370704455fe3c1807c4f58dadbe6c",
      "blockNumber": "0x2d03b52",
      "gasUsed": "0xbb42",
      "effectiveGasPrice": "0xe6840",
      "blobGasUsed": "0x0",
      "from": "0x6636a1ccbdf54485067304c1a590de016dead9f0",
      "to": "0x22d645a97a056e673b290c1e537d18423ffa4d20",
      "contractAddress": null
    },
    {
      "status": "0x1",
      "cumulativeGasUsed": "0xea648e",
      "logs": [
        {
          "address": "0xa40c38e3b7c8fc30be98f0de17371497cca70e35",
          "topics": [
            "0x52bafeba4de2402504d61f002c2fad43812af540e5a29c0fc810adeff8526e6e",
            "0xdd7f9ad016ef7107e9fc1cd2a48923f637038b2cc82d5730c753eb477a35e8bf",
            "0xc12913004969ef5abacbc05e598d85301784f2382bfd5ab889ed3366ab63523e"
          ],
          "data": "0x00000000000000000000000000000000000000000000000000000000000000000000000000000000000000000000000000000000000000000000000000000000",
          "blockHash": "0xa6e5790717d49a41e3f072819cf57ec9aaf370704455fe3c1807c4f58dadbe6c",
          "blockNumber": "0x2d03b52",
          "blockTimestamp": "0x6a56616f",
          "transactionHash": "0xa8d74a06f91224c3b5ddf68b43701c91e6da832049bc0eca5c82dae56fe75885",
          "transactionIndex": "0x19",
          "logIndex": "0x8b",
          "removed": false
        }
      ],
      "logsBloom": "0x00000000000000000000200004000000000000000020000000000000000002000000000000000000000000000000000000000000000000000000000000000000000000000000000000000000000000000004000000000001000000000000000000000000000000000000000000000000000000000000000000000000000000000000000000000000000000000000040000000000000000040000000002000000000000000000000000000000000000000000000000000000000000000000000000000000000000040000000000000000000000000000000000002000000000000000000000000000000000008000000000000000000000000000000000000000",
      "type": "0x2",
      "transactionHash": "0xa8d74a06f91224c3b5ddf68b43701c91e6da832049bc0eca5c82dae56fe75885",
      "transactionIndex": "0x19",
      "blockHash": "0xa6e5790717d49a41e3f072819cf57ec9aaf370704455fe3c1807c4f58dadbe6c",
      "blockNumber": "0x2d03b52",
      "gasUsed": "0xc1ec",
      "effectiveGasPrice": "0xe6840",
      "blobGasUsed": "0x0",
      "from": "0x6636a1ccbdf54485067304c1a590de016dead9f0",
      "to": "0xa40c38e3b7c8fc30be98f0de17371497cca70e35",
      "contractAddress": null
    },
    {
      "status": "0x1",
      "cumulativeGasUsed": "0xeb1fdc",
      "logs": [
        {
          "address": "0x22d645a97a056e673b290c1e537d18423ffa4d20",
          "topics": [
            "0xb25583a674106e80ada6266af0fade6be76a81c3cc3b921ab0e70fa63f92a70a",
            "0xdd7f9ad016ef7107e9fc1cd2a48923f637038b2cc82d5730c753eb477a35e8bf"
          ],
          "data": "0x0000000000000000000000000000000000000000000000000000000000000004",
          "blockHash": "0xa6e5790717d49a41e3f072819cf57ec9aaf370704455fe3c1807c4f58dadbe6c",
          "blockNumber": "0x2d03b52",
          "blockTimestamp": "0x6a56616f",
          "transactionHash": "0x5e1928e0cbee459ee14bf358cbdb32898f3473dd4b704f28ca3dd791c6321aa9",
          "transactionIndex": "0x1a",
          "logIndex": "0x8c",
          "removed": false
        }
      ],
      "logsBloom": "0x00000000000000000000000004000000000000000000000000000000000000000000000000000000000000000000000000000000000000000000000000000000000000000000000000000000000000000004000080000000000000000000000000000000000400000000000000000000000000000000000000000000000000000000000000000000000000000000000000000000000000040000020000000000000000000000000000000000000000000000000000000000000000000000000000020000000000000000000000000000000000000000000002000000000000000000000000000000000000000000000000000000400000000000000000000000",
      "type": "0x2",
      "transactionHash": "0x5e1928e0cbee459ee14bf358cbdb32898f3473dd4b704f28ca3dd791c6321aa9",
      "transactionIndex": "0x1a",
      "blockHash": "0xa6e5790717d49a41e3f072819cf57ec9aaf370704455fe3c1807c4f58dadbe6c",
      "blockNumber": "0x2d03b52",
      "gasUsed": "0xbb4e",
      "effectiveGasPrice": "0xe6840",
      "blobGasUsed": "0x0",
      "from": "0x6636a1ccbdf54485067304c1a590de016dead9f0",
      "to": "0x22d645a97a056e673b290c1e537d18423ffa4d20",
      "contractAddress": null
    },
    {
      "status": "0x1",
      "cumulativeGasUsed": "0xebe1d4",
      "logs": [
        {
          "address": "0xa40c38e3b7c8fc30be98f0de17371497cca70e35",
          "topics": [
            "0x52bafeba4de2402504d61f002c2fad43812af540e5a29c0fc810adeff8526e6e",
            "0xfbedd74d5e89f2e85777bb31e1af59d01cefd9138edb6ebfa1b6e124aae3bbd1",
            "0xc267bdfbe31faace1ba653135af04b6de1c1b10ac77ad797d3dc165b60590dd2"
          ],
          "data": "0x00000000000000000000000000000000000000000000000000000000000000000000000000000000000000000000000000000000000000000000000000000000",
          "blockHash": "0xa6e5790717d49a41e3f072819cf57ec9aaf370704455fe3c1807c4f58dadbe6c",
          "blockNumber": "0x2d03b52",
          "blockTimestamp": "0x6a56616f",
          "transactionHash": "0xac60e90be4d9c005bc7584b7437a23efb12a224c975e609a4dd9c72b1b778cbd",
          "transactionIndex": "0x1b",
          "logIndex": "0x8d",
          "removed": false
        }
      ],
      "logsBloom": "0x00000000000000000000200000000000000000000020000000000000000002000000000000000000000000000800000000000000000000000000000000000000000000000000000000000000000000000000000000000001000000000000000000000000000000000000000000000000000000000000000000000000000000000000000000000000000040000000040000400000000000000000000000000000000000000000000000000008000000000000000000000000080000000000000000000000000000000000000000000000000000000000000000002000000000000000000000000000000002000000000000000000000000000000000000000000",
      "type": "0x2",
      "transactionHash": "0xac60e90be4d9c005bc7584b7437a23efb12a224c975e609a4dd9c72b1b778cbd",
      "transactionIndex": "0x1b",
      "blockHash": "0xa6e5790717d49a41e3f072819cf57ec9aaf370704455fe3c1807c4f58dadbe6c",
      "blockNumber": "0x2d03b52",
      "gasUsed": "0xc1f8",
      "effectiveGasPrice": "0xe6840",
      "blobGasUsed": "0x0",
      "from": "0x6636a1ccbdf54485067304c1a590de016dead9f0",
      "to": "0xa40c38e3b7c8fc30be98f0de17371497cca70e35",
      "contractAddress": null
    },
    {
      "status": "0x1",
      "cumulativeGasUsed": "0xec9d22",
      "logs": [
        {
          "address": "0x22d645a97a056e673b290c1e537d18423ffa4d20",
          "topics": [
            "0xb25583a674106e80ada6266af0fade6be76a81c3cc3b921ab0e70fa63f92a70a",
            "0xfbedd74d5e89f2e85777bb31e1af59d01cefd9138edb6ebfa1b6e124aae3bbd1"
          ],
          "data": "0x0000000000000000000000000000000000000000000000000000000000000004",
          "blockHash": "0xa6e5790717d49a41e3f072819cf57ec9aaf370704455fe3c1807c4f58dadbe6c",
          "blockNumber": "0x2d03b52",
          "blockTimestamp": "0x6a56616f",
          "transactionHash": "0xd2481b1813c8969ca7ea800ee1a1ed5a1f5c3b56829d1f2283e0afb1990f876d",
          "transactionIndex": "0x1c",
          "logIndex": "0x8e",
          "removed": false
        }
      ],
      "logsBloom": "0x00000000000000000000000000000000000000000000000000000000000000000000000000000000000000000800000000000000000000000000000000000000000000000000000000000000000000000000000080000000000000000000000000000000000400000000000000000000000000000000000000000000000000000000000000000000000040000000000000000000000000000000020000000000000000000000000000000008000000000000000000000000000000000000000000020000000000000000000000000000000000000000000002000000000000000000000000000000000000000000000000000000400000000000000000000000",
      "type": "0x2",
      "transactionHash": "0xd2481b1813c8969ca7ea800ee1a1ed5a1f5c3b56829d1f2283e0afb1990f876d",
      "transactionIndex": "0x1c",
      "blockHash": "0xa6e5790717d49a41e3f072819cf57ec9aaf370704455fe3c1807c4f58dadbe6c",
      "blockNumber": "0x2d03b52",
      "gasUsed": "0xbb4e",
      "effectiveGasPrice": "0xe6840",
      "blobGasUsed": "0x0",
      "from": "0x6636a1ccbdf54485067304c1a590de016dead9f0",
      "to": "0x22d645a97a056e673b290c1e537d18423ffa4d20",
      "contractAddress": null
    },
    {
      "status": "0x1",
      "cumulativeGasUsed": "0xed5f0e",
      "logs": [
        {
          "address": "0xa40c38e3b7c8fc30be98f0de17371497cca70e35",
          "topics": [
            "0x52bafeba4de2402504d61f002c2fad43812af540e5a29c0fc810adeff8526e6e",
            "0xfc00d2d47b594baaf884881f6614d9c9ba4a9a8a2498b6c2480efa6865e5c4e5",
            "0x3040163df848ce0820c55d4c80c36550c6825ce6c0319bd5a4dd60d554e43319"
          ],
          "data": "0x00000000000000000000000000000000000000000000000000000000000000000000000000000000000000000000000000000000000000000000000000000000",
          "blockHash": "0xa6e5790717d49a41e3f072819cf57ec9aaf370704455fe3c1807c4f58dadbe6c",
          "blockNumber": "0x2d03b52",
          "blockTimestamp": "0x6a56616f",
          "transactionHash": "0x9891a1c8c2afea3d4821555db959d9dcfb26095c6e6c748c8e3d6f8850e9615b",
          "transactionIndex": "0x1d",
          "logIndex": "0x8f",
          "removed": false
        }
      ],
      "logsBloom": "0x80000000000000000000200000000000000000000020000000000000080002000000000000000000000000000000000000000000000000000000000000000000000000000000000000000000000000000000000000000001000000000000000000000000000000000000000800000000000000000000000400000000000000000000000000000000000000000000240000000000000000000000000000000000000000000000000000000000000000000000000000000000000000000000000000000000000000000000000000000000000000000000000000002000000000000000000000000000000000000000000000000008000000000000000000000000",
      "type": "0x2",
      "transactionHash": "0x9891a1c8c2afea3d4821555db959d9dcfb26095c6e6c748c8e3d6f8850e9615b",
      "transactionIndex": "0x1d",
      "blockHash": "0xa6e5790717d49a41e3f072819cf57ec9aaf370704455fe3c1807c4f58dadbe6c",
      "blockNumber": "0x2d03b52",
      "gasUsed": "0xc1ec",
      "effectiveGasPrice": "0xe6840",
      "blobGasUsed": "0x0",
      "from": "0x6636a1ccbdf54485067304c1a590de016dead9f0",
      "to": "0xa40c38e3b7c8fc30be98f0de17371497cca70e35",
      "contractAddress": null
    },
    {
      "status": "0x1",
      "cumulativeGasUsed": "0xee1a50",
      "logs": [
        {
          "address": "0x22d645a97a056e673b290c1e537d18423ffa4d20",
          "topics": [
            "0xb25583a674106e80ada6266af0fade6be76a81c3cc3b921ab0e70fa63f92a70a",
            "0xfc00d2d47b594baaf884881f6614d9c9ba4a9a8a2498b6c2480efa6865e5c4e5"
          ],
          "data": "0x0000000000000000000000000000000000000000000000000000000000000004",
          "blockHash": "0xa6e5790717d49a41e3f072819cf57ec9aaf370704455fe3c1807c4f58dadbe6c",
          "blockNumber": "0x2d03b52",
          "blockTimestamp": "0x6a56616f",
          "transactionHash": "0x628a5a405c220649f3663d44208d118521e270dc974a4f285e23a111bad05775",
          "transactionIndex": "0x1e",
          "logIndex": "0x90",
          "removed": false
        }
      ],
      "logsBloom": "0x80000000000000000000000000000000000000000000000000000000000000000000000000000000000000000000000000000000000000000000000000000000000000000000000000000000000000000000000080000000000000000000000000000000000400000000000000000000000000000000000000000000000000000000000000000000000000000000200000000000000000000000020000000000000000000000000000000000000000000000000000000000000000000000000000020000000000000000000000000000000000000000000002000000000000000000000000000000000000000000000000000008400000000000000000000000",
      "type": "0x2",
      "transactionHash": "0x628a5a405c220649f3663d44208d118521e270dc974a4f285e23a111bad05775",
      "transactionIndex": "0x1e",
      "blockHash": "0xa6e5790717d49a41e3f072819cf57ec9aaf370704455fe3c1807c4f58dadbe6c",
      "blockNumber": "0x2d03b52",
      "gasUsed": "0xbb42",
      "effectiveGasPrice": "0xe6840",
      "blobGasUsed": "0x0",
      "from": "0x6636a1ccbdf54485067304c1a590de016dead9f0",
      "to": "0x22d645a97a056e673b290c1e537d18423ffa4d20",
      "contractAddress": null
    },
    {
      "status": "0x1",
      "cumulativeGasUsed": "0xeedc3c",
      "logs": [
        {
          "address": "0xa40c38e3b7c8fc30be98f0de17371497cca70e35",
          "topics": [
            "0x52bafeba4de2402504d61f002c2fad43812af540e5a29c0fc810adeff8526e6e",
            "0x2ef355c36047c867708206fd4439bf1782d8c92346a0d797c19e406d600be6d3",
            "0x351a10d4002b512a526e285319105c45150cc7e8daf64da2f4e0107ed48b1ef8"
          ],
          "data": "0x00000000000000000000000000000000000000000000000000000000000000000000000000000000000000000000000000000000000000000000000000000000",
          "blockHash": "0xa6e5790717d49a41e3f072819cf57ec9aaf370704455fe3c1807c4f58dadbe6c",
          "blockNumber": "0x2d03b52",
          "blockTimestamp": "0x6a56616f",
          "transactionHash": "0x98735674ce147da2d7577d117f1461042da36ec49f8662e578cadc7a42843376",
          "transactionIndex": "0x1f",
          "logIndex": "0x91",
          "removed": false
        }
      ],
      "logsBloom": "0x00000000000000000000200000000000000004000020000080000000000002000000000000000000000000000000800000000000000000000000000000000000000000000000000000000000000800000000000000000001000008000000000000000000000000000000000000000000000000000000000000000000000000000000000000000000000000000000040000000000000000000000000000000000000000000000000000000000000000000000000000000000000000000000000000000000400000000000000000000000000000000000000000002000000000000000000000000000000000000000000000000000000000000000000000000000",
      "type": "0x2",
      "transactionHash": "0x98735674ce147da2d7577d117f1461042da36ec49f8662e578cadc7a42843376",
      "transactionIndex": "0x1f",
      "blockHash": "0xa6e5790717d49a41e3f072819cf57ec9aaf370704455fe3c1807c4f58dadbe6c",
      "blockNumber": "0x2d03b52",
      "gasUsed": "0xc1ec",
      "effectiveGasPrice": "0xe6840",
      "blobGasUsed": "0x0",
      "from": "0x6636a1ccbdf54485067304c1a590de016dead9f0",
      "to": "0xa40c38e3b7c8fc30be98f0de17371497cca70e35",
      "contractAddress": null
    },
    {
      "status": "0x1",
      "cumulativeGasUsed": "0xef978a",
      "logs": [
        {
          "address": "0x22d645a97a056e673b290c1e537d18423ffa4d20",
          "topics": [
            "0xb25583a674106e80ada6266af0fade6be76a81c3cc3b921ab0e70fa63f92a70a",
            "0x2ef355c36047c867708206fd4439bf1782d8c92346a0d797c19e406d600be6d3"
          ],
          "data": "0x0000000000000000000000000000000000000000000000000000000000000004",
          "blockHash": "0xa6e5790717d49a41e3f072819cf57ec9aaf370704455fe3c1807c4f58dadbe6c",
          "blockNumber": "0x2d03b52",
          "blockTimestamp": "0x6a56616f",
          "transactionHash": "0x2d2570df07c5410cd9fafd923c1c4dff4a0efe5cd85b43d916dbd8b1e5d249c5",
          "transactionIndex": "0x20",
          "logIndex": "0x92",
          "removed": false
        }
      ],
      "logsBloom": "0x00000000000000000000000000000000000000000000000000000000000000000000000000000000000000000000000000000000000000000000000000000000000000000000000000000000000800000000000080000000000008000000000000000000000400000000000000000000000000000000000000000000000000000000000000000000000000000000000000000000000000000000020000000000000000000000000000000000000000000000000000000000000000000000000000020000400000000000000000000000000000000000000002000000000000000000000000000000000000000000000000000000400000000000000000000000",
      "type": "0x2",
      "transactionHash": "0x2d2570df07c5410cd9fafd923c1c4dff4a0efe5cd85b43d916dbd8b1e5d249c5",
      "transactionIndex": "0x20",
      "blockHash": "0xa6e5790717d49a41e3f072819cf57ec9aaf370704455fe3c1807c4f58dadbe6c",
      "blockNumber": "0x2d03b52",
      "gasUsed": "0xbb4e",
      "effectiveGasPrice": "0xe6840",
      "blobGasUsed": "0x0",
      "from": "0x6636a1ccbdf54485067304c1a590de016dead9f0",
      "to": "0x22d645a97a056e673b290c1e537d18423ffa4d20",
      "contractAddress": null
    },
    {
      "status": "0x1",
      "cumulativeGasUsed": "0xf05982",
      "logs": [
        {
          "address": "0xa40c38e3b7c8fc30be98f0de17371497cca70e35",
          "topics": [
            "0x52bafeba4de2402504d61f002c2fad43812af540e5a29c0fc810adeff8526e6e",
            "0x69e0b58ffc1cbb204718de64a16f93b74d5d30410a14d4ee8c09da49ba6da058",
            "0xbcd6d31329ae040b31f3d9e02ca253069091270e7dc94a3eb1492438d7718bb0"
          ],
          "data": "0x00000000000000000000000000000000000000000000000000000000000000000000000000000000000000000000000000000000000000000000000000000000",
          "blockHash": "0xa6e5790717d49a41e3f072819cf57ec9aaf370704455fe3c1807c4f58dadbe6c",
          "blockNumber": "0x2d03b52",
          "blockTimestamp": "0x6a56616f",
          "transactionHash": "0xb7100326581f421e12444d59092d5722f954460e8cc67ffa566dc3f9f692ab17",
          "transactionIndex": "0x21",
          "logIndex": "0x93",
          "removed": false
        }
      ],
      "logsBloom": "0x00000000000000000000200000000000000000000020000000000000000002000000000000000000040000000000000000000000000000000000000000000001100000000000000000000000000000000000000000000001000000000000000000000000000000000000000000000000000000000000000000000000000000000000000000000000000000000000040000000000000000000000000000000000000008000000000000000000000000000000000000000000000000000000000000000000000000000000000000000060000000000000000000002000000000000000000000000000000000000000000000000000000000000000000000000000",
      "type": "0x2",
      "transactionHash": "0xb7100326581f421e12444d59092d5722f954460e8cc67ffa566dc3f9f692ab17",
      "transactionIndex": "0x21",
      "blockHash": "0xa6e5790717d49a41e3f072819cf57ec9aaf370704455fe3c1807c4f58dadbe6c",
      "blockNumber": "0x2d03b52",
      "gasUsed": "0xc1f8",
      "effectiveGasPrice": "0xe6840",
      "blobGasUsed": "0x0",
      "from": "0x6636a1ccbdf54485067304c1a590de016dead9f0",
      "to": "0xa40c38e3b7c8fc30be98f0de17371497cca70e35",
      "contractAddress": null
    },
    {
      "status": "0x1",
      "cumulativeGasUsed": "0xf114d0",
      "logs": [
        {
          "address": "0x22d645a97a056e673b290c1e537d18423ffa4d20",
          "topics": [
            "0xb25583a674106e80ada6266af0fade6be76a81c3cc3b921ab0e70fa63f92a70a",
            "0x69e0b58ffc1cbb204718de64a16f93b74d5d30410a14d4ee8c09da49ba6da058"
          ],
          "data": "0x0000000000000000000000000000000000000000000000000000000000000004",
          "blockHash": "0xa6e5790717d49a41e3f072819cf57ec9aaf370704455fe3c1807c4f58dadbe6c",
          "blockNumber": "0x2d03b52",
          "blockTimestamp": "0x6a56616f",
          "transactionHash": "0x7fc477d843819ad94ce421d187be67b4ec11aa84d256edb65990827550bd359e",
          "transactionIndex": "0x22",
          "logIndex": "0x94",
          "removed": false
        }
      ],
      "logsBloom": "0x00000000000000000000000000000000000000000000000000000000000000000000000000000000000000000000000000000000000000000000000000000001100000000000000000000000000000000000000080000000000000000000000000000000000400000000000000000000000000000000000000000000000000000000000000000000000000000000000000000000000000000000020000000000000008000000000000000000000000000000000000000000000000000000000000020000000000000000000000000000000000000000000002000000000000000000000000000000000000000000000000000000400000000000000000000000",
      "type": "0x2",
      "transactionHash": "0x7fc477d843819ad94ce421d187be67b4ec11aa84d256edb65990827550bd359e",
      "transactionIndex": "0x22",
      "blockHash": "0xa6e5790717d49a41e3f072819cf57ec9aaf370704455fe3c1807c4f58dadbe6c",
      "blockNumber": "0x2d03b52",
      "gasUsed": "0xbb4e",
      "effectiveGasPrice": "0xe6840",
      "blobGasUsed": "0x0",
      "from": "0x6636a1ccbdf54485067304c1a590de016dead9f0",
      "to": "0x22d645a97a056e673b290c1e537d18423ffa4d20",
      "contractAddress": null
    },
    {
      "status": "0x1",
      "cumulativeGasUsed": "0xf1d6c8",
      "logs": [
        {
          "address": "0xa40c38e3b7c8fc30be98f0de17371497cca70e35",
          "topics": [
            "0x52bafeba4de2402504d61f002c2fad43812af540e5a29c0fc810adeff8526e6e",
            "0xfd1cd8587dafd61302ec45de150eaedeb79a4c3bfc1c484f795f2c8a4e3d6d4e",
            "0xc6589aa5ff5ed77c1eff6c8413846a1225cdfca47cad6da9e5af6bd553fbb3e8"
          ],
          "data": "0x00000000000000000000000000000000000000000000000000000000000000000000000000000000000000000000000000000000000000000000000000000000",
          "blockHash": "0xa6e5790717d49a41e3f072819cf57ec9aaf370704455fe3c1807c4f58dadbe6c",
          "blockNumber": "0x2d03b52",
          "blockTimestamp": "0x6a56616f",
          "transactionHash": "0xff64d18f846b3f5d73c60fad5541746e2631ceab0c5709f4bdd70bef4c6016f7",
          "transactionIndex": "0x23",
          "logIndex": "0x95",
          "removed": false
        }
      ],
      "logsBloom": "0x00000000000000000000200000000000000000000020000000000000000002000000000000000000000000000000000000000000000000000000000000000000000000000000000000000000000000000000000000000001000000000000000000000000000000000000000000000000000000000000000008000000000000000000000000000000000000000000040000000000200000000000000000000000000000000000000000000000000000080000000000000000000000000000000000000000000000000000000000000000000000000200000000002000000000000000000400000000000000000000000000000000000000000000000000040000",
      "type": "0x2",
      "transactionHash": "0xff64d18f846b3f5d73c60fad5541746e2631ceab0c5709f4bdd70bef4c6016f7",
      "transactionIndex": "0x23",
      "blockHash": "0xa6e5790717d49a41e3f072819cf57ec9aaf370704455fe3c1807c4f58dadbe6c",
      "blockNumber": "0x2d03b52",
      "gasUsed": "0xc1f8",
      "effectiveGasPrice": "0xe6840",
      "blobGasUsed": "0x0",
      "from": "0x6636a1ccbdf54485067304c1a590de016dead9f0",
      "to": "0xa40c38e3b7c8fc30be98f0de17371497cca70e35",
      "contractAddress": null
    },
    {
      "status": "0x1",
      "cumulativeGasUsed": "0xf29216",
      "logs": [
        {
          "address": "0x22d645a97a056e673b290c1e537d18423ffa4d20",
          "topics": [
            "0xb25583a674106e80ada6266af0fade6be76a81c3cc3b921ab0e70fa63f92a70a",
            "0xfd1cd8587dafd61302ec45de150eaedeb79a4c3bfc1c484f795f2c8a4e3d6d4e"
          ],
          "data": "0x0000000000000000000000000000000000000000000000000000000000000004",
          "blockHash": "0xa6e5790717d49a41e3f072819cf57ec9aaf370704455fe3c1807c4f58dadbe6c",
          "blockNumber": "0x2d03b52",
          "blockTimestamp": "0x6a56616f",
          "transactionHash": "0xbc355c38affd7cbc709c206c08b8fee34fda887a0db18be1ab975d27c7008f78",
          "transactionIndex": "0x24",
          "logIndex": "0x96",
          "removed": false
        }
      ],
      "logsBloom": "0x00000000000000000000000000000000000000000000000000000000000000000000000000000000000000000000000000000000000000000000000000000000000000000000000000000000000000000000000080000000000000000000000000000000000400000000000000000000000000000000000008000000000000000000000000000000000000000000000000000000000000000000020000000000000000000000000000000000000000000000000000000000000000000000000000020000000000000000000000000000000000000200000002000000000000000000000000000000000000000000000000000000400000000000000000040000",
      "type": "0x2",
      "transactionHash": "0xbc355c38affd7cbc709c206c08b8fee34fda887a0db18be1ab975d27c7008f78",
      "transactionIndex": "0x24",
      "blockHash": "0xa6e5790717d49a41e3f072819cf57ec9aaf370704455fe3c1807c4f58dadbe6c",
      "blockNumber": "0x2d03b52",
      "gasUsed": "0xbb4e",
      "effectiveGasPrice": "0xe6840",
      "blobGasUsed": "0x0",
      "from": "0x6636a1ccbdf54485067304c1a590de016dead9f0",
      "to": "0x22d645a97a056e673b290c1e537d18423ffa4d20",
      "contractAddress": null
    },
    {
      "status": "0x1",
      "cumulativeGasUsed": "0xf34e1a",
      "logs": [
        {
          "address": "0xb6132c8376802657c18049a8ac6c65fc8a85aa29",
          "topics": [
            "0x5784d9c5cfa0188bf80d31e42ec5d1e25d3bc2f939ed3b17d11faaed5cbfcc1b",
            "0xaf0e629bab05558ec79a04ffb31828259b64bb695209ea05b057a9099069431d"
          ],
          "data": "0x00000000000000000000000001234d1f1ed3554c17a10941288195d90fd005c8",
          "blockHash": "0xa6e5790717d49a41e3f072819cf57ec9aaf370704455fe3c1807c4f58dadbe6c",
          "blockNumber": "0x2d03b52",
          "blockTimestamp": "0x6a56616f",
          "transactionHash": "0xb6b04c6c081a7df685091807daeec66afe20d4da966fd4fa91f1e722c84485e5",
          "transactionIndex": "0x25",
          "logIndex": "0x97",
          "removed": false
        }
      ],
      "logsBloom": "0x00000004000000000000000000000000000000000001000000000000000000000000000000000000800000000000000000000000000000000000000000000000000000000000000000000000000000040000000000000000000000000000000000000000000000000000000000000000000000000000000800000000000000000000020001000000000000000000000000000000000000000000000000000000000000000000000000000000000000000800000000000000000000000000000000000000000000000000000000001000000000000000000000000000000000000000000000000000000000000000000000000000000000000000000000000000",
      "type": "0x2",
      "transactionHash": "0xb6b04c6c081a7df685091807daeec66afe20d4da966fd4fa91f1e722c84485e5",
      "transactionIndex": "0x25",
      "blockHash": "0xa6e5790717d49a41e3f072819cf57ec9aaf370704455fe3c1807c4f58dadbe6c",
      "blockNumber": "0x2d03b52",
      "gasUsed": "0xbc04",
      "effectiveGasPrice": "0xe6840",
      "blobGasUsed": "0x0",
      "from": "0x6636a1ccbdf54485067304c1a590de016dead9f0",
      "to": "0xb6132c8376802657c18049a8ac6c65fc8a85aa29",
      "contractAddress": null
    },
    {
      "status": "0x1",
      "cumulativeGasUsed": "0xf40a1e",
      "logs": [
        {
          "address": "0xb6132c8376802657c18049a8ac6c65fc8a85aa29",
          "topics": [
            "0x5784d9c5cfa0188bf80d31e42ec5d1e25d3bc2f939ed3b17d11faaed5cbfcc1b",
            "0x373f1840b4ba84dfb9407f17aaadff5231b2028ae473ee93737a936af13b4ed1"
          ],
          "data": "0x00000000000000000000000001234d1f1ed3554c17a10941288195d90fd005c8",
          "blockHash": "0xa6e5790717d49a41e3f072819cf57ec9aaf370704455fe3c1807c4f58dadbe6c",
          "blockNumber": "0x2d03b52",
          "blockTimestamp": "0x6a56616f",
          "transactionHash": "0x9d674f880b435e021b94d2193f932010524894d27c0279f9ff6abc4090b61faa",
          "transactionIndex": "0x26",
          "logIndex": "0x98",
          "removed": false
        }
      ],
      "logsBloom": "0x00000014000000000000000000000000000000000001000000000000000000000000000000000000000000000000000000000000000000000000000000000000000000000000000000000000000040000000000000000000000000000000000000000000000000000000000000000000000000000000000800000000000000000000020000000000000000000000000000000000000000000000000000000000000000000040000000000000000000000800000000000000000000000000000000000000000000000000000000001000000000000000000000000000000000000000000000000000000000000000000000000000000000000000000000000000",
      "type": "0x2",
      "transactionHash": "0x9d674f880b435e021b94d2193f932010524894d27c0279f9ff6abc4090b61faa",
      "transactionIndex": "0x26",
      "blockHash": "0xa6e5790717d49a41e3f072819cf57ec9aaf370704455fe3c1807c4f58dadbe6c",
      "blockNumber": "0x2d03b52",
      "gasUsed": "0xbc04",
      "effectiveGasPrice": "0xe6840",
      "blobGasUsed": "0x0",
      "from": "0x6636a1ccbdf54485067304c1a590de016dead9f0",
      "to": "0xb6132c8376802657c18049a8ac6c65fc8a85aa29",
      "contractAddress": null
    },
    {
      "status": "0x1",
      "cumulativeGasUsed": "0xf4c622",
      "logs": [
        {
          "address": "0xb6132c8376802657c18049a8ac6c65fc8a85aa29",
          "topics": [
            "0x5784d9c5cfa0188bf80d31e42ec5d1e25d3bc2f939ed3b17d11faaed5cbfcc1b",
            "0xe4e21d06eee0ae2c34e0ce87fa95d207c01cb56afa75c3cf58ac8fd998e6c26c"
          ],
          "data": "0x00000000000000000000000001234d1f1ed3554c17a10941288195d90fd005c8",
          "blockHash": "0xa6e5790717d49a41e3f072819cf57ec9aaf370704455fe3c1807c4f58dadbe6c",
          "blockNumber": "0x2d03b52",
          "blockTimestamp": "0x6a56616f",
          "transactionHash": "0x7eb906d7ee31ce467422d825a5eba7a4b756ede055a581252b0067825d6018c8",
          "transactionIndex": "0x27",
          "logIndex": "0x99",
          "removed": false
        }
      ],
      "logsBloom": "0x00000004000000000000000000000000000000000001000000000000000000000000000000000000000000000000000000000000000000000000000000000000000000000000000000000000000000000000000000000000004000000000000000000000000000000000000000000000000000000000000800000000000000000000020000000000000000000000000000000000000000000000000000000000000000000800000000000000000000000800000000000000000000000000000000000000000000000000000000001000000000000000000000000000000000000000000000000000000000000000000002000000000000000000000000000000",
      "type": "0x2",
      "transactionHash": "0x7eb906d7ee31ce467422d825a5eba7a4b756ede055a581252b0067825d6018c8",
      "transactionIndex": "0x27",
      "blockHash": "0xa6e5790717d49a41e3f072819cf57ec9aaf370704455fe3c1807c4f58dadbe6c",
      "blockNumber": "0x2d03b52",
      "gasUsed": "0xbc04",
      "effectiveGasPrice": "0xe6840",
      "blobGasUsed": "0x0",
      "from": "0x6636a1ccbdf54485067304c1a590de016dead9f0",
      "to": "0xb6132c8376802657c18049a8ac6c65fc8a85aa29",
      "contractAddress": null
    }
  ],
  "libraries": [],
  "pending": [],
  "returns": {
    "d": {
      "internal_type": "struct Deploy.Deployment",
      "value": "(0xe91D153E0b41518A2Ce8Dd3D7944Fa863463a97d, 0xaf204776c7245bF4147c2612BF6e5972Ee483701, 0xA40C38E3B7C8FC30bE98f0DE17371497CcA70e35, 0xb6132c8376802657C18049a8Ac6c65fC8A85AA29, 0x01234d1F1Ed3554c17a10941288195d90FD005C8, 0x22D645A97A056e673B290C1e537D18423FFa4D20, 0xB525B70B256f355331d687bEF70f9b97104B2784, 0x9F3BEa11734570A8260CB560f0CdeF11Ac8258f5)"
    }
  },
  "timestamp": 1784045938025,
  "chain": 100,
  "commit": "b7d4c5e"
}